:1000000000000820C92C0000C52C0000190F0000BA
:10001000310F0000490F0000610F000000000000D8
:10002000000000000000000000000000C52C0000DF
:10003000C52C000000000000C52C000001250100B7
:10004000FD160100C52C0000351A010039220100FF
:10005000C52C0000C52C0000C52C0000C52C0000DC
:10006000C52C0000C52C0000C52C0000C52C0000CC
:10007000C52C00004D220100C52C0000C52C00003D
:10008000C52C0000C52C0000C52C0000C52C0000AC
:10009000C52C0000C52C0000C52C0000C52C00009C
:1000A000C52C0000C52C0000C52C0000C52C00008C
:1000B000C52C0000C52C0000C52C0000C52C00007C
:1000C000C52C0000C52C0000C52C0000C52C00006C
:1000D000C52C0000C52C0000C52C0000C52C00005C
:1000E000C52C000039130000C52C0000C52C0000F1
:1000F000C52C0000C52C0000C52C0000C52C00003C
:10010000C52C0000C52C0000C52C0000C52C00002B
:10011000C52C0000C52C0000C52C0000C52C00001B
:10012000C52C0000C52C0000C52C0000C52C00000B
:10013000C52C0000C52C0000C52C0000C52C0000FB
:10014000C52C0000C52C0000C52C0000C52C0000EB
:10015000034613F8012B002AFBD1181A0138704707
:1001600081F0004102E000BF83F0004330B54FEA68
:1001700041044FEA430594EA050F08BF90EA020FD5
:100180001FBF54EA000C55EA020C7FEA645C7FEA68
:10019000655C00F0E2804FEA5454D4EB5555B8BF8B
:1001A0006D420CDD2C4480EA020281EA030382EAFC
:1001B000000083EA010180EA020281EA0303362D8E
:1001C00088BF30BD11F0004F4FEA01314FF4801C61
:1001D0004CEA113102D0404261EB410113F0004F73
:1001E0004FEA03334CEA133302D0524263EB43032A
:1001F00094EA050F00F0A780A4F10104D5F1200EC8
:100200000DDB02FA0EFC22FA05F2801841F1000122
:1002100003FA0EF2801843FA05F359410EE0A5F1F6
:1002200020050EF1200E012A03FA0EFC28BF4CF027
:10023000020C43FA05F3C01851EBE37101F00045DD
:1002400007D54FF0000EDCF1000C7EEB00006EEBEA
:100250000101B1F5801F1BD3B1F5001F0CD3490874
:100260005FEA30004FEA3C0C04F101044FEA4452CB
:1002700012F5800F80F09A80BCF1004F08BF5FEA52
:10028000500C50F1000041EB045141EA050130BD32
:100290005FEA4C0C404141EB0101013C28BFB1F544
:1002A000801FE9D291F0000F04BF01460020B1FA8F
:1002B00081F308BF2033A3F10B03B3F120020CDA62
:1002C0000C3208DD02F1140CC2F10C0201FA0CF040
:1002D00021FA02F10CE002F11402D8BFC2F1200CA5
:1002E00001FA02F120FA0CFCDCBF41EA0C0190405B
:1002F000E41AA2BF01EB0451294330BD6FEA0404A4
:100300001F3C1CDA0C340EDC04F11404C4F120028E
:1003100020FA04F001FA02F340EA030021FA04F3A0
:1003200045EA030130BDC4F10C04C4F1200220FAF7
:1003300002F001FA04F340EA0300294630BD21FA35
:1003400004F0294630BD94F0000F83F4801306BFFB
:1003500081F480110134013D4EE77FEA645C18BFEF
:100360007FEA655C29D094EA050F08BF90EA020F86
:1003700005D054EA000C04BF1946104630BD91EA7E
:10038000030F1EBF0021002030BD5FEA545C05D181
:100390004000494128BF41F0004130BD14F58004C0
:1003A0003CBF01F5801130BD01F0004545F0FE4134
:1003B00041F470014FF0000030BD7FEA645C1ABF69
:1003C000194610467FEA655C1CBF0B46024650EAA0
:1003D000013406BF52EA033591EA030F41F40021CC
:1003E00030BD00BF90F0000F04BF0021704730B552
:1003F0004FF4806404F132044FF000054FF0000127
:1004000050E700BF90F0000F04BF0021704730B5E7
:100410004FF4806404F1320410F0004548BF4042BC
:100420004FF000013EE700BF42004FEAE2014FEA11
:1004300031014FEA02701FBF12F07F4393F07F4FEC
:1004400081F06051704732F07F4208BF704793F0EF
:100450007F4F04BF41F40021704730B54FF4607402
:1004600001F0004521F000411CE700BF50EA010205
:1004700008BF704730B54FF000050AE050EA0102AE
:1004800008BF704730B511F0004502D5404261EB1E
:1004900041014FF4806404F132045FEA915C3FF45F
:1004A000D8AE4FF003025FEADC0C18BF03325FEAFC
:1004B000DC0C18BF033202EBDC02C2F1200300FAAD
:1004C00003FC20FA02F001FA03FE40EA0E0021FAD2
:1004D00002F11444BDE600BF70B54FF0FF0C4CF4C0
:1004E000E06C1CEA11541DBF1CEA135594EA0C0F72
:1004F00095EA0C0F00F0DEF82C4481EA030621EAAD
:100500004C5123EA4C5350EA013518BF52EA0335E7
:1005100041F4801143F4801338D0A0FB02CE4FF099
:100520000005E1FB02E506F00042E0FB03E54FF0C9
:100530000006E1FB03569CF0000F18BF4EF0010EC1
:10054000A4F1FF04B6F5007F64F5407404D25FEABD
:100550004E0E6D4146EB060642EAC62141EA555170
:100560004FEAC52040EA5E504FEACE2EB4F1FD0CB2
:1005700088BFBCF5E06F1ED8BEF1004F08BF5FEA30
:10058000500E50F1000041EB045170BD06F00046E2
:1005900046EA010140EA020081EA0301B4EB5C048F
:1005A000C2BFD4EB0C0541EA045170BD41F4801187
:1005B0004FF0000E013C00F3AB8014F1360FDEBFAC
:1005C000002001F0004170BDC4F10004203C35DA88
:1005D0000C341BDC04F11404C4F1200500FA05F30B
:1005E00020FA04F001FA05F240EA020001F00042AC
:1005F00021F0004110EBD37021FA04F642EB060122
:100600005EEA430E08BF20EAD37070BDC4F10C044B
:10061000C4F1200500FA04F320FA05F001FA04F20F
:1006200040EA020001F0004110EBD37041F10001FB
:100630005EEA430E08BF20EAD37070BDC4F1200506
:1006400000FA05F24EEA020E20FA04F301FA05F26E
:1006500043EA020321FA04F001F0004121FA04F216
:1006600020EA020000EBD3705EEA430E08BF20EAE6
:10067000D37070BD94F0000F0FD101F00046400020
:1006800041EB010111F4801F08BF013CF7D041EAA2
:10069000060195F0000F18BF704703F000465200A6
:1006A00043EB030313F4801F08BF013DF7D043EA77
:1006B0000603704794EA0C0F0CEA135518BF95EA2D
:1006C0000C0F0CD050EA410618BF52EA4306D1D1B4
:1006D00081EA030101F000414FF0000070BD50EAD3
:1006E000410606BF1046194652EA430619D094EA5D
:1006F0000C0F02D150EA013613D195EA0C0F05D147
:1007000052EA03361CBF104619460AD181EA03019A
:1007100001F0004141F0FE4141F470014FF0000052
:1007200070BD41F0FE4141F4780170BD70B54FF0ED
:10073000FF0C4CF4E06C1CEA11541DBF1CEA13556D
:1007400094EA0C0F95EA0C0F00F0A7F8A4EB05044F
:1007500081EA030E52EA03354FEA013100F0888046
:100760004FEA03334FF0805545EA131343EA12630F
:100770004FEA022245EA111545EA10654FEA0026C4
:100780000EF000419D4208BF964244F1FD0404F57D
:10079000407402D25B084FEA3202B61A65EB0305D9
:1007A0005B084FEA32024FF480104FF4002CB6EB96
:1007B000020E75EB030E22BFB61A754640EA0C0016
:1007C0005B084FEA3202B6EB020E75EB030E22BF56
:1007D000B61A754640EA5C005B084FEA3202B6EB97
:1007E000020E75EB030E22BFB61A754640EA9C0056
:1007F0005B084FEA3202B6EB020E75EB030E22BF26
:10080000B61A754640EADC0055EA060E18D04FEAE3
:10081000051545EA16754FEA06164FEAC30343EA83
:1008200052734FEAC2025FEA1C1CC0D111F4801F50
:100830000BD141EA00014FF000004FF0004CB6E749
:1008400011F4801F04BF01430020B4F1FD0C88BFE8
:10085000BCF5E06F3FF6AFAEB5EB030C04BFB6EBF3
:10086000020C5FEA500C50F1000041EB045170BDE6
:100870000EF0004E4EEA113114EB5C04C2BFD4EB13
:100880000C0541EA045170BD41F480114FF0000E97
:10089000013C90E645EA060E8DE60CEA135594EA13
:1008A0000C0F08BF95EA0C0F3FF43BAF94EA0C0F16
:1008B0000AD150EA01347FF434AF95EA0C0F7FF48B
:1008C00025AF104619462CE795EA0C0F06D152EADF
:1008D00003353FF4FDAE1046194622E750EA4106C3
:1008E00018BF52EA43067FF4C5AE50EA41047FF4D4
:1008F0000DAF52EA43057FF4EBAE12E74FF0FF3C39
:1009000006E000BF4FF0010C02E000BF4FF0010C09
:100910004DF804CD4FEA410C7FEA6C5C4FEA430C82
:1009200018BF7FEA6C5C1BD001B050EA410C0CBFD1
:1009300052EA430C91EA030F02BF90EA020F002033
:10094000704710F1000F91EA030F58BF994208BF9A
:1009500090422CBFD8176FEAE37040F00100704757
:100960004FEA410C7FEA6C5C02D150EA013C07D1AE
:100970004FEA430C7FEA6C5CD6D152EA033CD3D0F9
:100980005DF8040B704700BF8446104662468C46F3
:100990001946634600E000BF01B5FFF7B7FF002826
:1009A00048BF10F1000F01BD4DF808EDFFF7F4FF4F
:1009B0000CBF012000205DF808FB00BF4DF808EDDA
:1009C000FFF7EAFF34BF012000205DF808FB00BFFD
:1009D0004DF808EDFFF7E0FF94BF012000205DF81F
:1009E00008FB00BF4DF808EDFFF7CEFF94BF0120D4
:1009F00000205DF808FB00BF4DF808EDFFF7C4FFCD
:100A000034BF012000205DF808FB00BF4FEA41021F
:100A100012F5001215D211D56FF47873B3EB625250
:100A200012D94FEAC12343F0004343EA505311F077
:100A3000004F23FA02F018BF404270474FF0000009
:100A4000704750EA013005D111F0004008BF6FF047
:100A5000004070474FF00000704700BF4A0011D2BD
:100A600012F5001211D20DD56FF47873B3EB625208
:100A70000ED44FEAC12343F0004343EA505323FA14
:100A800002F070474FF00000704750EA013002D189
:100A90004FF0FF3070474FF00000704780F000408B
:100AA00002E000BF81F0004142001FBF5FEA410346
:100AB00092EA030F7FEA226C7FEA236C6AD04FEA46
:100AC0001262D2EB1363C1BFD2184140484041408B
:100AD000B8BF5B42192B88BF704710F0004F40F43D
:100AE000000020F07F4018BF404211F0004F41F459
:100AF000000121F07F4118BF494292EA030F3FD025
:100B0000A2F1010241FA03FC10EB0C00C3F1200337
:100B100001FA03F100F0004302D5494260EB4000C6
:100B2000B0F5000F13D3B0F1807F06D340084FEA31
:100B3000310102F10102FE2A51D2B1F1004F40EB26
:100B4000C25008BF20F0010040EA0300704749008E
:100B500040EB0000013A28BFB0F5000FEDD2B0FA2B
:100B600080FCACF1080CB2EB0C0200FA0CF0AABF4E
:100B700000EBC25052421843BCBFD04018437047EC
:100B800092F0000F81F4000106BF80F400000132F2
:100B9000013BB5E74FEA41037FEA226C18BF7FEAC9
:100BA000236C21D092EA030F04D092F0000F08BF0B
:100BB0000846704790EA010F1CBF0020704712F0F2
:100BC0007F4F04D1400028BF40F00040704712F131
:100BD00000723CBF00F50000704700F0004343F096
:100BE000FE4040F4000070477FEA226216BF0846CC
:100BF0007FEA23630146420206BF5FEA412390EA8F
:100C0000010F40F4800070474FF0000304E000BF84
:100C100010F0004348BF40425FEA000C08BF704735
:100C200043F0964301464FF000001CE050EA0102F9
:100C300008BF70474FF000030AE000BF50EA01020E
:100C400008BF704711F0004302D5404261EB4101FB
:100C50005FEA010C02BF84460146002043F0B64320
:100C600008BFA3F18053A3F50003BCFA8CF2083A45
:100C7000A3EBC25310DB01FA02FC634400FA02FC4E
:100C8000C2F12002BCF1004F20FA02F243EB020055
:100C900008BF20F00100704702F1200201FA02FCB7
:100CA000C2F1200250EA4C0021FA02F243EB0200AA
:100CB00008BF20EADC70704753B94AB9002908BF61
:100CC00000281CBF4FF0FF314FF0FF3000F00CB890
:100CD000ADF1080C6DE904CE13F0E6FBDDF804E09D
:100CE000DDE9022304B07047704700BF08B5064A2B
:100CF00013695B06FCD50D2010F02EFFBDE80840FF
:100D000002490D2010F0E8BE00000140C0000020A4
:100D1000F0B407289DF810709DF8146010D8094DA4
:100D20000130840041F0E00105F82010611C6F548F
:100D3000A11C03346B542A5516B1F0BCFFF7D6BF83
:100D4000F0BC70470001002037B51C482922002163
:100D500013F0BEFA002425460023A0B2CDE90055C9
:100D60001A4619460134FFF7D3FF082CF4D10D20A1
:100D700010F0D4FE0D2010F0E5FE0D2010F0ECFE7A
:100D800000230F4C0F491A46CDE900550D2010F0F5
:100D90008DFE0D4B2360094B63600C4BA3600D204F
:100DA000E56010F0C5FE0D2010F0AEFE21460D20CE
:100DB00003B0BDE8304010F08FBE00BF000100203E
:100DC000C000002002000C009802003034000140F6
:100DD00008B534202DED088BB0EE40BAB0EE608A35
:100DE000F0EE41AAB0EE61AAF0EE429AB0EE629A3D
:100DF000F0EE438A13F04EFAA8B100238362036039
:100E0000C36280ED01BA80ED028AC0ED09AA80EDCF
:100E100003AAC0ED049A80ED059AC0ED068AC3616D
:100E2000036280ED0C8ABDEC088B08BD82B00028FF
:100E300062D0D0ED005AF5EE405AF1EE10FA5BD0D8
:100E400090ED0A7AD0ED0B7A9FED326A37EE677A31
:100E5000D0ED097AF4EEC77AF1EE10FA4EDDF1EE3C
:100E6000676AF4EEC76AF1EE10FA47D5D0ED047A5E
:100E700090ED035A67EE276AD0ED087AE5EE877A9F
:100E8000F4EE457AF1EE10FAC8BFF0EE457AF4EED2
:100E9000467AF1EE10FA48BFF0EE467A90ED076A16
:100EA000C0ED087A37EE466A86EE255A90ED056A5F
:100EB000E6EE276AF0EE667AD0ED066AE6EE857A0F
:100EC000D0ED026AC0ED0C7AD0ED017A036B01938C
:100ED000F4EEE67AF1EE10FA58BFF0EE667ADDED48
:100EE000016AF4EEE76AF1EE10FA58BFDDED017A1F
:100EF000C0ED0C7A80ED077A02B07047F4EEC77A45
:100F0000F1EE10FA4CBF43688368036380ED086A12
:100F1000F0E700BF000000001EF0040F0CBFEFF36D
:100F20000880EFF309808169004A1047790F0000BB
:100F30001EF0040F0CBFEFF30880EFF30980816906
:100F4000004A10475D1000001EF0040F0CBFEFF3C5
:100F50000880EFF309808169004A104751110000B1
:100F60001EF0040F0CBFEFF30880EFF309808169D6
:100F7000004A10475112000000B589B00368009381
:100F80004368019383680293C368039303690493DE
:100F900043690593836906932149C36921480793EF
:100FA00013F02AF9009A1E491F48204C13F024F927
:100FB000019A1B491E4813F01FF9029A18491D484F
:100FC00013F01AF9039A16491B4813F015F9049AFD
:100FD00013491A4813F010F9059A1149184813F0EB
:100FE0000BF9069A0E49174813F006F9079A0C49AF
:100FF000154813F001F90A49144813F0FDF8E26AA4
:101000000749134813F0F8F862680549114813F0CE
:10101000F3F8EFF3088202490F4813F0EDF8FEE70A
:10102000EB4901008B470100AD47010000ED00E0F6
:10103000C2470100D7470100EC4701000148010009
:10104000174801003E480100694801009748010027
:10105000BF480100D6480100ED48010000B589B045
:10106000036800934368019383680293C368039302
:101070000369049343690593836906932449C3690B
:101080002448079313F0B8F8009A21492248234CCA
:1010900013F0B2F8019A1E49214813F0ADF8029AF4
:1010A0001B49204813F0A8F8039A19491E4813F069
:1010B000A3F8049A16491D4813F09EF8059A14499E
:1010C0001B4813F099F8069A11491A4813F094F83E
:1010D000079A0F49184813F08FF80D49174813F075
:1010E0008BF8A26A0A491648D2B213F085F8626BEF
:1010F0000749144813F080F862680549124813F054
:101100007BF8EFF308820249104813F075F8FEE708
:10111000014A010003490100AD47010000ED00E074
:10112000C2470100D7470100EC4701000148010018
:10113000174801003E480100694801009748010036
:10114000324901004A490100D6480100ED4801003A
:1011500000B589B0036800934368019383680293E4
:10116000C3680393036904934369059383690693F2
:101170002749C3692748079313F03EF8009A24498A
:101180002548264C13F038F8019A2149244813F0D9
:1011900033F8029A1E49234813F02EF8039A1C498B
:1011A000214813F029F8049A1949204813F024F82B
:1011B000059A17491E4813F01FF8069A14491D484E
:1011C00013F01AF8079A12491B4813F015F8104942
:1011D0001A4813F011F8A26A0D491948C2F3072200
:1011E00013F00AF8A26B0A49164813F005F8626872
:1011F0000749154813F000F8EFF308820449134833
:1012000012F0FAFF4FF0804301225A64FEE700BF5C
:10121000174A010062490100AD47010000ED00E0FE
:10122000C2470100D7470100EC4701000148010017
:10123000174801003E480100694801009748010035
:10124000834901009A490100D6480100ED48010098
:1012500000B589B0036800934368019383680293E3
:10126000C3680393036904934369059383690693F1
:101270002249C3692248079312F0BEFF009A1F4912
:101280002048214C12F0B8FF019A1C491F4812F067
:10129000B3FF029A19491E4812F0AEFF039A17498C
:1012A0001C4812F0A9FF049A14491B4812F0A4FF2D
:1012B000059A1249194812F09FFF069A0F491848DB
:1012C00012F09AFF079A0D49164812F095FF0B4944
:1012D000154812F091FFA26A08491448C2F3CF32B0
:1012E00012F08AFF62680549114812F085FFEFF39A
:1012F000088202490F4812F07FFFFEE72C4A0100E6
:10130000B1490100AD47010000ED00E0C247010016
:10131000D7470100EC4701000148010017480100D0
:101320003E4801006948010097480100D449010086
:10133000D6480100ED480100174B5B69DB072AD551
:10134000164B174A1B68DFED176AD3ED0C7AFCEEDB
:10135000E77A17EE903A9BB232F8132042F21073FC
:10136000142AACBF9B1A143B07EE903AF8EEE77ACA
:101370000D4B87EEA67ABCEEC77A83ED1D7AD3EDCE
:101380001D7A9FED0A7AF8EE677A77EE877AFCEE9F
:10139000E77AC3ED217A704700A001402C010020BC
:1013A0008E5B01004260E53C00A401404992B243DB
:1013B00038B59FED392ADFED391ADFED390A9FED97
:1013C000390AB2EE043AF3EE042AB2EE0E1AFFF72F
:1013D000FFFC354B3549186000285BD03448354C4C
:1013E00012F00AFF344AD2F8C43043F00103C2F8C5
:1013F000C430324B40F265111C60D9610021596242
:101400005963186B40F0010018634FF08040186674
:1014100040F6F77058612A484FF40075C0F88451BF
:1014200080F82913456001209861D2F8C43043F058
:101430000203C2F8C430234B4FF0FF301C60D86168
:1014400059624FF0005119661F48204919675867C3
:10145000C3F880101E49C3F88410D2F8B03043F0AE
:101460004003C2F8B0301B4B45F201221A6502F16D
:10147000805202F58172DA6702F174420132C3F8D8
:1014800080209A6942F000729A619A6842F4006280
:101490009A6038BD1048A2E70000AF4300009643B1
:1014A0000000000000401C462C010020154C0100EB
:1014B000434A01001003002000400E4000A00140FC
:1014C00000E100E000A401405116040002030010F6
:1014D000B617040000600E405E4A01002DE9F04F8F
:1014E0008F4D904CD5E900322DED028BD4E9006789
:1014F00013F1640042F1000185B0B94208BFB04267
:10150000039565D2002000F032FB43065BD5002036
:1015100000F004FB844D854E00210846B0EE408A61
:1015200000F021FBD4E90023D5E90001101A63EB98
:101530000101FFF77BFBDFED7E7A376807EE100ACB
:1015400067EE277A3846C7ED007A87ED0B8AFFF7FA
:101550006DFCD4E90001D5E90023821A61EB030395
:101560007448754912F048FE18EE100AFEF75CFF49
:1015700002460B467148704912F03EFE3368986A85
:10158000FEF752FF02460B466D486B4912F034FEDF
:101590003368186AFEF748FF02460B4669486649F9
:1015A00012F02AFE3368186BFEF73EFF0B4642F23C
:1015B00010710246009164485F4912F01DFED4E9A3
:1015C0000023C5E90023D4E900230399C1E90023DE
:1015D0005E4ED6E90032D4E9000113F5FA7842F103
:1015E0000009894508BF80455ED2594D2B78082BEC
:1015F00000F29080DFE803F0898E8E058E268E5DE6
:1016000078004D49534812F0F7FD18EE100AFEF726
:101610000BFF0B46024648494F4812F0EDFDDFED47
:101620004F7A424BB4EEE78A1B68F1EE10FAC3ED35
:101630000A7A35DD0523D4E900012B70484BC3E954
:1016400000012DE0464F3C494648DFF8408112F04A
:10165000D3FDD7E90023D4E900014FF0000912EBD4
:10166000080243EB0903121A63EB01033E483249B7
:1016700012F0C2FD2D4B3D4A1B689A62D7E9003239
:10168000D4E9000113EB080A42EB090B8B4508BFB4
:10169000824505D207232B70D4E90023C7E9002334
:1016A000D4E90023C6E9002305B0BDEC028BBDE8F8
:1016B000F08F21492E4812F09FFD18EE100AFEF718
:1016C000B3FE02460B462B481B4912F095FD174B03
:1016D000DFED297A1B68294A9A62B4EEE78AF1EEB7
:1016E00010FADDDD0823A6E71349254812F084FD32
:1016F0000E4BDFED247A1B68B4EEE78A0022F1EE90
:1017000010FA9A62CCD5002395E70B491E4812F0D7
:1017100073FDC5E7054B1B6800229A62C0E700BF56
:1017200040010020F85E0020300100202C01002044
:101730006F12833A7A4A01001F4C0100A24A01004D
:10174000C54A0100E74A0100044B010038010020AE
:1017500000000020244B01003D4B0100000011431C
:1017600048010020684B01007E4B0100000020432F
:10177000A64B0100BE4B010000005C43000070431B
:10178000E94B010000007042FF4B010070110100A5
:10179000072910B5044608D109F010FA143001B237
:1017A0002046BDE810400AF039B810BD0E2908B532
:1017B0000DD10AF061FC064B00EB800000EB8000CD
:1017C00001B201221868BDE808400FF089BC08BDCD
:1017D000500100202DE9F043002185B0084606F0B5
:1017E0008FFD07F0B3FB002108460BF0E3F9054637
:1017F00007F081FE002128460FF05EFA6849044692
:101800000FF058F93221204609F020FB002007F0A4
:101810006BFE00210CF016F84FF0140907466149E1
:1018200009F072F800230C2221463846CDF80090CA
:1018300009F03CFB002138460FF03EFA5A490FF000
:1018400039F9394628460BF0FDFF002432231322D4
:1018500006460094394609F029FB214630460FF030
:101860002BFA5249524E0FF025F9214628460CF02A
:1018700067F980463060284609F0A0F93722032135
:1018800090FBF1F1404609B209F074FFCDF80090E9
:101890002346306839460C2209F008FB224630689E
:1018A0001E210FF01DFC214628460AF019FC009469
:1018B000322312220746316809F0F8FA384601212E
:1018C00008F0B6FF38463B490AF04EFB38463A4925
:1018D00009F01AF8214628460DF0D4FC04462846A3
:1018E00009F06CF90746284609F068F90028B8BFE6
:1018F000033007EBD77740F38F0247F34F012046C1
:1019000009F038FF322300930C220023316820466F
:1019100009F0CCFA204603210DF0C6FD4FF6000178
:1019200020460DF071FD0A220146039020460DF07D
:10193000EBFD0399204619220DF0E6FD03992046A0
:101940002D220DF0E1FD0399502220460DF0DCFD23
:1019500044F2983120460DF057FD0A2201460390CB
:1019600020460DF0D1FD0399204619220DF0CCFD43
:10197000039920462D220DF0C7FD039920465022E1
:101980000DF0C2FD039920464B220DF0BDFD0399D9
:1019900040F2F912204605B0BDE8F0430DF0B4BDA9
:1019A000294C0100911700003B4C0100444C010000
:1019B000500100204D4C0100AD170000F7B5184E46
:1019C000184FD6E90032D7E9004513F1320042F151
:1019D0000001A94208BFA04220D20024CDE9004462
:1019E000114D2346224621462878FFF791F92978A0
:1019F00007291CBF4C1CE4B22C7010F077FD0121AC
:101A0000C3B200930191C0F30723C0F307422878C3
:101A1000FFF77EF9D7E90023C6E9002303B0F0BD44
:101A200058010020F85E00200100002000B962B6D5
:101A3000704713B58DF804108DF80520EFF310846E
:101A400072B6400000F00E000123022201A940F00E
:101A5000C00010F0CDFD2046FFF7E8FF02B010BD3A
:101A600037B5EFF3108472B600F0070040F0600065
:101A7000450001238DF807101A460DF1070128468D
:101A800010F0B6FD01231A460DF1070145EA0300E7
:101A900010F0AEFD20469DF80730FFF7C7FF18464F
:101AA00003B030BD37B5EFF3108472B600F0070015
:101AB00040F06000450001238DF804101A4601A98A
:101AC000284610F095FD012345EA0300022201A9F2
:101AD00010F08EFD2046FFF7A9FF9DF804009DF849
:101AE000053043EA002003B030BD10B5EFF3108499
:101AF00072B64000002200F00E000123114640F0B3
:101B0000C00010F075FD034620461BB9FFF78EFF9D
:101B1000184610BDFFF78AFF0123F9E708B5002139
:101B2000FFF7C0FF030441BF404283B200EE103A0A
:101B3000DFED057A4BBFB8EEC00A00EE100A20EECA
:101B4000270ABAEECE0A08BD000080BD08B52021E4
:101B5000FFF7A8FFC0F3072008BD08B52021FFF755
:101B6000A1FFC0B208BD0A460421FFF762BF0421ED
:101B7000FFF776BF0A460521FFF75BBF0A4606213D
:101B8000FFF757BF70B51A4CE36CC3F30743103B24
:101B90006A2B96BF174A184B52F82330626BC2F378
:101BA00007224A2A86B01FD04C2A04D04D2A02D0E0
:101BB000512A18BF3F22656B15F0FF0516D0012D85
:101BC0000CBF49263F26E56C646B0296C4F30744BC
:101BD000CDE90324ADB24FF4006201920095074AAB
:101BE00012F01EFB06B070BD3F22E4E74726EAE78D
:101BF000B081E00FD8590100684C01006A4C010027
:101C000070B52DED048B022390B020224FF40071AB
:101C10004FF480400FF0AAFF01200FF0A5FD002037
:101C20000FF0B6FE9FEDD40AD44C0FF075FE87215D
:101C30004FF4007011F0ACF98721062011F0BEF9C5
:101C400011F088F8D4F86C12CD4A41F000710120EF
:101C500011F04EF9CB4AD4F80C11012011F074F9AF
:101C600010F0FAFD0FF0FAFFC74903200FF0FEFF56
:101C700010F06BF810F050FC10F0F8FA0FF0FAFECC
:101C800010F0D6FB10F00AFC10F03AF80FF0BEFE90
:101C900011F09AFA10F084FADFEDBC0A9FEDBC0A4D
:101CA00004AA05A901200FF079FD06A9B0EE040AE7
:101CB00001200FF0C5FD9FEDB70A07A901200FF025
:101CC000F5FDDFEDB57ADDED069A9DED079A01226F
:101CD0001146002079EEA79A39EE279A10F04EFCB3
:101CE000012201251146002010F002FD2A46CDE90F
:101CF0000055AA484FF0FF33002111F075F9002379
:101D0000CDE9003319462A46A54811F0D5F920211E
:101D10000DEB0100FFF736FF08AAA249A24812F016
:101D20006BFAA249A2480B698A69C9691B02C1F30F
:101D3000031103F47C530B4302F0F0021A43994958
:101D400012F05AFA226897499A48C2F3074212F0F1
:101D500053FA944998484FF4006212F04DFA9149B1
:101D600096484FF4007212F047FA284612F092FAA1
:101D7000EFF308831A1A039212F094FA039A89492E
:101D80008F48DFED908A9FED908A904D904E12F033
:101D900033FA626C8349236C8E488F4C12F02CFA14
:101DA0000FF0FCFE7F4902468C4812F025FA0FF036
:101DB0004DFF7C4902468A4812F01EFA0FF040FFA0
:101DC0000022884B7749884812F016FA874BD3EDEA
:101DD000007AF8EE677AC7EEA87A17EE900AFEF757
:101DE00023FB02460B4682486E4912F005FA814BEE
:101DF000D3ED007AF8EE677AC7EEA87A17EE900A6C
:101E0000FEF712FB02460B467B48664912F0F4F9D6
:101E10007A4BD3ED007AF8EE677AC7EEA87A17EE20
:101E2000900AFEF701FB02460B4675485D4912F029
:101E3000E3F94FA3D3E900235A49724812F0DCF9C1
:101E4000714BD3ED007AF8EE677AC7EE887A17EE19
:101E5000900AFEF7E9FA02460B466C48514912F027
:101E6000CBF96B4BD3ED007AF8EE677AC7EE887A40
:101E700017EE900AFEF7D8FA02460B466548494924
:101E800012F0BAF9644BD3ED007AF8EE677AC7EE38
:101E9000A87A17EE900AFEF7C7FA02460B465F488B
:101EA000404912F0A9F95E4BD3ED007AF8EE677A5B
:101EB000C7EEA87A17EE900AFEF7B6FA02460B466E
:101EC0005848384912F098F9574BD3ED007AF8EE9C
:101ED000677AC7EEA87A17EE900AFEF7A5FA0246CF
:101EE0000B4652482F4912F087F9514BD3ED007A37
:101EF000F8EE677AC7EEA87A17EE900AFEF794FA22
:101F000002460B464B48274912F076F94A4BD3ED6F
:101F1000007AF8EE677AC7EEA87A17EE900AFEF715
:101F200083FA02460B4645481E4912F065F9444BB8
:101F3000D3ED007AF8EE677AC7EEA87A17EE900A2A
:101F4000FEF772FA02460B463E48164912F054F963
:101F50003D4BD3ED007AF8EE677AC7EEA87A17EE1C
:101F6000900AFEF761FA02460B466FE0AFF300807D
:101F7000000000E04D62404033335340B081E00F39
:101F800000127A000048E801808D5B007B144E400F
:101F9000666646409A994940F4FDD43C80A81201F7
:101FA00000512502845B0100834C0100D0FF0FE04B
:101FB000974C0100B84C0100E14C0100FD4C0100C0
:101FC000174D01000024744900007A447C4C010044
:101FD000F9550100304D0100804C01004E4D0100CB
:101FE0006F4D010000002040904D01004C0000208A
:101FF000B54D010058000020DB4D010048000020D5
:10200000034E01002C4E010050000020514E0100F3
:1020100054000020774E0100F46200209E4E010023
:102020001C630020C44E0100F8620020E74E01004E
:10203000E06200200D4F010004630020344F0100D6
:10204000146300205A4F010008630020D748D84984
:1020500012F0D2F8D74BD3ED007AF8EE677AC7EEDC
:10206000A87A17EE900AFEF7DFF902460B46D2482F
:10207000CF4912F0C1F8D14BD3ED007AF8EE677A70
:10208000C7EEA87A17EE900AFEF7CEF902460B4685
:10209000CB48C74912F0B0F8CA4BD3ED007AF8EE3E
:1020A000677AC7EEA87A17EE900AFEF7BDF90246E6
:1020B0000B46C548BE4912F09FF8C44BD3ED007AD9
:1020C000F8EE677AC7EEA87A17EE900AFEF7ACF939
:1020D00002460B46BE48B64912F08EF8BD4BD3ED12
:1020E000007AF8EE677AC7EEA87A17EE900AFEF744
:1020F0009BF902460B46B848AD4912F07DF8B74B44
:10210000D3ED007AF8EE677AC7EEA87A17EE900A58
:10211000FEF78AF902460B46B148A54912F06CF861
:10212000B04BD3ED007AF8EE677AC7EEA87A17EED7
:10213000900AFEF779F902460B46AB489C4912F02B
:102140005BF8AA4BD3ED007AF8EE677AC7EEA87A6F
:1021500017EE900AFEF768F902460B46A448944928
:1021600012F04AF8A34BD3ED007AF8EE677AC7EE87
:10217000A87A17EE900AFEF757F902460B469E48DA
:102180008B4912F039F89D4BD3ED007AF8EE677A5F
:10219000C7EE887A17EE900AFEF746F902460B461C
:1021A0009748834912F028F8964BD3ED007AF8EE61
:1021B000677AC7EE887A17EE900AFEF735F902467D
:1021C0000B4691487A4912F017F8904BD3ED007AFC
:1021D000F8EE677AC7EE887A17EE900AFEF724F9D0
:1021E00002460B468A48724912F006F8894BD3ED35
:1021F000007AF8EE677AC7EE887A17EE900AFEF753
:1022000013F902460B468448694911F0F5FF834BE8
:10221000D3ED007AF8EE677AC7EE887A17EE900A67
:10222000FEF702F902460B467D48614911F0E4FFD2
:102230007C4BD3ED007AF8EE677AC7EE887A17EE1A
:10224000900AFEF7F1F802460B467748584911F01C
:10225000D3FF764BD3ED007AF8EE677AC7EE887A33
:1022600017EE900AFEF7E0F802460B467048504918
:1022700011F0C2FF6F4BD3ED007AF8EE677AC7EE2C
:10228000887A17EE900AFEF7CFF802460B466A48A6
:10229000474911F0B1FF694BD3ED007AF8EE677A48
:1022A000C7EE887A17EE900AFEF7BEF802460B4694
:1022B00063483F4911F0A0FF624BD3ED007AF8EE7E
:1022C000677AC7EE887A17EE900AFEF7ADF80246F5
:1022D0000B465D48364911F08FFF5C4BD3ED007A19
:1022E000F8EE677AC7EE887A17EE900AFEF79CF848
:1022F00002460B4656482E4911F07EFF554BD3ED52
:10230000007AF8EE677AC7EE887A17EE900AFEF741
:102310008BF802460B465048254911F06DFF4F4B94
:10232000D3ED007AF8EE677AC7EE887A17EE900A56
:10233000FEF77AF802460B4649481D4911F05CFF4A
:10234000484BD3ED007AF8EE677AC7EE887A17EE3D
:10235000900AFEF769F802460B464348144911F00B
:102360004BFFDDED057A67EE887A17EE900AFEF7EF
:102370005BF802460B463D480D4911F03DFFDDED8F
:10238000047A67EE887A17EE900AFEF74DF8024657
:102390000B463748064911F02FFF10F035FF10EEBD
:1023A000100AFEF741F802460B4663E0804F010039
:1023B000845B010000630020A74F0100CC62002075
:1023C000CE4F0100FC620020F34F01001863002093
:1023D00018500100C06200203D500100D86200206A
:1023E00061500100E462002086500100306300204B
:1023F000AB50010010630020CF500100C8620020E4
:10240000F3500100206300201751010024630020D5
:102410003F5101002863002063510100BC6200208D
:1024200087510100D4620020B0510100DC6200201D
:10243000D95101002C630020FD510100EC62002005
:1024400025520100D06200204D520100C4620020DC
:10245000755201000C6300209A520100F0620020C6
:10246000BE520100E8620020E25201000753010061
:10247000345301008348844911F0BEFE834B8249E6
:102480001A788348002A14BF2A46224611F0B4FE67
:10249000DDED067A67EE887A17EE900AFDF7C4FF45
:1024A00002460B467B48784911F0A6FE69EE887A11
:1024B00017EE900AFDF7B8FF02460B4676487249C0
:1024C00011F09AFE10F0E2FE10EE100AFDF7ACFFDC
:1024D00002460B4671486C4911F08EFE704B6A49FA
:1024E0001A787048002A14BF2A46224611F084FE4A
:1024F000DDED077A67EE887A17EE900AFDF794FF14
:1025000002460B466848604911F076FE69EE087A8B
:1025100017EE900AFDF788FF02460B4663485A49BA
:1025200011F06AFE10F0F4FE10EE100AFDF77CFFC9
:1025300002460B465E48544911F05EFE5D4B52491F
:102540001A785D48002A14BF2A46224611F054FE2C
:1025500010F020FF10EE100AFDF766FF02460B4652
:1025600056484949484D11F047FE10F055FF10EE0E
:10257000100AFDF759FF02460B465148424911F037
:102580003BFE10F099FF10EE100AFDF74DFF0246DA
:102590000B464C483C4911F02FFE10F0DFFF10EEC7
:1025A000100AFDF741FF02460B464748364911F035
:1025B00023FE11F023F810EE100AFDF735FF024656
:1025C0000B464248304911F017FE11F069F810EE41
:1025D000100AFDF729FF02460B463D482A4911F033
:1025E0000BFE4FF4FA7140F2DC500FF0E7FE64206E
:1025F00000210FF0A9FF2449364811F0FDFD082401
:10260000600000220123114600F0FE000FF0F0FFF1
:1026100020B122462946304611F0EEFD0134782CD7
:10262000EED119492C48184D2C4E11F0E5FD082427
:10263000600000220123114600F0FE0010F094F823
:1026400020B122462946304611F0D6FD0134782CBF
:10265000EED10020FFF749FA0B4978B1204811F07C
:10266000CBFD0720FFF741FA074948B11D4811F09B
:10267000C3FD002010B0BDEC048B70BD1A48EEE71E
:102680001A48F4E761530100845B0100905E00206A
:1026900086530100A5530100D2530100FF530100EE
:1026A000925E002024540100435401007154010043
:1026B0009F540100935E0020C5540100E5540100C1
:1026C0000A550100345501005E550100875501008F
:1026D000B0550100DA5501001A560100F955010004
:1026E00039560100745601005656010091560100FA
:1026F00000B564218BB04FF4FA600FF05FFE32201A
:1027000000210FF021FF64214FF4FA600FF056FE14
:102710000FF0E4FC42490246424811F06DFD08A961
:10272000082200200FF000FD9DF8273005939DF84A
:10273000263004939DF8253003939DF824300293AE
:102740009DF8233001939DF822309DF820203449D4
:10275000009335489DF8213011F04EFDFEF7F4FA54
:102760002F49324811F048FD08F02AF800F098F996
:102770002B492F4811F040FD00F0B6F828492D48AC
:1027800011F03AFD00F076F944F6206000F050FABE
:102790009FED290A00F074FA0020FFF7D7F907909F
:1027A0000020FFF7DAF9079A1D490346234811F084
:1027B00023FD0720FFF7CAF907900720FFF7CDF99F
:1027C000079A174903461E4811F016FD00210846D6
:1027D000FFF7D0F900210846FFF7D0F900210720C4
:1027E000FFF7C8F900210720FFF7C8F9FEF7E0FD61
:1027F000FEF7F0FF012011F04DFDEFF308831A1AE8
:10280000079211F04FFD079A05490E4811F0F4FCAC
:1028100001F018F8FFF7D2F8FEF760FEF8E700BF06
:10282000895B0100AF560100CC5601000057010042
:102830001B57010032570100CDCC4C3F48570100D7
:1028400076570100174D0100064B1B78003B18BF5F
:1028500001238B73044B1B880B80044B1B884B801C
:102860000020704760010020620100206401002008
:1028700013B5EFF3108472B603238DF804300122F0
:10288000002301A970200FF06FFF042201230DEB3C
:10289000020171200FF068FF04B962B69DF80400D0
:1028A0009DF80710030203F4E0629DF8053013431E
:1028B0009DF80620120202F4E0620A4307490A80EA
:1028C000074AC3F5A073138010F0400F054B0CBFEF
:1028D000012200221A7002B010BD00BF6201002068
:1028E000640100206001002010B51F4B402488B017
:1028F0001C600A2000210FF027FE1C4B78201C6072
:1029000000210FF021FE00220123114670200FF05C
:102910002BFF38B34FF42253ADF80430EFF310849B
:1029200072B60123022201A970200FF01DFF04B925
:1029300062B600210A200FF007FE0D4A0023137033
:102940000C4A13800C4A01A81380012405F04AFCAC
:102950000A4B029301A88DF8044005F053FC084B84
:102960001860204608B010BD3C8008443C800846F2
:10297000600100206201002064010020492800005D
:102980000C5F0020F8B50D4B0D4E14460227202297
:102990001A600D461F6010F0F7FB15B92023336055
:1029A000F8BD002CFAD03760013CF7D3B4FA84F1BB
:1029B00015F8010B490910F0F9FBF5E76C800844A4
:1029C0006C800846F7B50B885BBAADF804308B888D
:1029D0000E46154604225BBA0DEB020107462A207B
:1029E000ADF80630FFF7CEFF73885BBAADF8043060
:1029F000F38804225BBA0DEB02012B20ADF8063000
:102A0000FFF7C0FF002211462C20FFF7BBFFB6F9ED
:102A10000440B6F90030B6F90220E31AB6F90640D0
:102A2000124EA41A013403FB0444114B20221A60F5
:102A300002223260013C06D220233360384605F082
:102A400091FB03B0F0BD68780021C00810F0AEFB28
:102A500028880021C0F3451010F0A8FB15F8020BE0
:102A6000002100F01F0010F0A1FBE3E76C80084696
:102A70006C800844002211462920FFF783BF002202
:102A800010B5114604461120FFF77CFF7820002185
:102A90000FF05AFD1CB1BDE81040FFF7EBBF10BDB1
:102AA00030B5554B20248FB01C600A2000210FF058
:102AB0004BFD524B78201C6000210FF045FD504A21
:102AC000504B0F24CDE902234F4B0493224641F68D
:102AD000162302A9E020ADF814308DF81640FFF758
:102AE00051FF4A494A4B8DF81640CDE90213494B34
:102AF0000493224643F2357302A9E120ADF8143065
:102B0000FFF740FF41F2175302A90222C020ADF89F
:102B10000830FFF737FF412302A90122C1208DF8B9
:102B20000830FFF72FFF802302A90322C5208DF86C
:102B30000830FFF727FF482302A9012236208DF82D
:102B40000830FFF71FFF662302A901223A208DF803
:102B500008300024FFF716FF02A90122B0208DF8EB
:102B60000840FFF70FFFA02302A90122B1208DF832
:102B700008300225FFF706FF02A90122B4208DF8D4
:102B80000850FFF7FFFE40F202232A4602A9B620B2
:102B9000ADF80830FFF7F6FE02A90122E9208DF812
:102BA0000840FFF7EFFE1C4B029302A90422F72016
:102BB000FFF7E8FE2046194CFFF761FF28230DF1CF
:102BC0000701012236208DF80730FFF7DBFE144A9B
:102BD00014494FF49653204605F010FA06A805F064
:102BE000F5F9114B069306A8104B0993079405F0CD
:102BF00013FA01200FB030BD3C8008443C800846E9
:102C000000030908160A3F784C090A080016190340
:102C10000F05324546040E0DA9512C82684C002048
:102C2000E626002066010020E0014001C5290000E1
:102C30000F49D1F8C03043F00203C1F8C0300D4B4A
:102C40000D494FF000521A600C4A1268B2FBF0F0C6
:102C500000220138D8615A62196602215A66596306
:102C6000196B41F00101196301215960DA6670475F
:102C700000400E4000840140030E00101463002049
:102C8000F7EE007AB4EEE70AF1EE10FA12DCB5EED8
:102C9000C00AF1EE10FA01D59FED080A084BD3EDFA
:102CA000077AF8EE677A27EE800ABCEEC00A83ED59
:102CB0001B0A7047B0EE670AF0E700BF0000000093
:102CC00000840140FEE7704708B51D4A1D4B1E49B0
:102CD0008B4227D31D4B1E4A1E498B4227D31E4BC6
:102CE0001E4A0021934227D3FFF7EDFF1C4B1D4ADC
:102CF0009A601D4ADA604FF4E0225A621A6942F083
:102D000010021A615A6942F010025A61D3F8882001
:102D100042F47002C3F88820FEF772FFFFF7E8FC68
:102D200072B6FEE752F8040B43F8040BD0E752F8F2
:102D3000040B43F8040BD0E743F8041BD2E700BFB1
:102D4000F0DE010000000010000000100000002074
:102D5000F0DE0100C0000020C0000020446300201D
:102D600000ED00E0000000000005FA0502800023ED
:102D7000C2F1010243800A807047B0F90220B0F925
:102D800000008242CCBF00200120704743880133FD
:102D900010B59CB21BB24380B1F90020002A04DCBC
:102DA000013202EB44020A8010BD0288013A12B2DD
:102DB00002809B1A0A88013202EB43030B80F3E77F
:102DC00090F900200378002A0EDA03F0E002C02A0E
:102DD0000CD003F0F002E02A0AD003F0F803F02B45
:102DE00014BF002004207047012070470220704764
:102DF0000320704773B50023019301B901A90A6844
:102E00008556835C002D02F1010403DB18460C603B
:102E100002B070BD03F0E005C02D10D10C60005D64
:102E200000F0C004802C01D00020F1E79B0103F4E6
:102E3000F86300F03F00184402320A60E8E703F04C
:102E4000F005E02D17D10C60045D04F0C005802D65
:102E5000EAD1951C0D60455D05F0C0008028E3D1E6
:102E6000180380B205F03F05A301284403F47C63F6
:102E700018440332E1E703F0F805F02D0C60D3D1DC
:102E8000045D04F0C005802DCED1951C0D60455D1C
:102E900005F0C006802EC7D1D61C0E60865D06F0F8
:102EA000C0008028C0D19B04200300F47C3003F4D0
:102EB000E0130343A80100F47C6006F03F063044B1
:102EC00018440432B9E700002DE9F0410024DFF88E
:102ED000288007460D462646AE4202D12046BDE870
:102EE000F0813819D8F800309847012838BF012000
:102EF00054FA80F40136EFE714000020F7B50024FF
:102F0000074F019406460D46019BAB4202D3204673
:102F100003B0F0BD3B6801A9304698470134F3E7A0
:102F20000C00002073B50024074E01940546019B58
:102F3000EB5C13B9204602B070BD336801A9284686
:102F400098470134F3E700BF0C0000200B68F7B589
:102F5000013B0E4F0B6006460C46042520683B687B
:102F600030449847236848B92BB1013D013B15F027
:102F7000FF052360F2D1002003B0F0BD0193044BA4
:102F800001A91B6830469847F6E700BF14000020EF
:102F90000C0000202329024617D103781BB9012316
:102FA0000370012004E0012B4FF0000009D11070E4
:102FB0001378012B04D1202904BF02211170184677
:102FC0007047022BF4D11070EBE70020F0E700000F
:102FD0002DE9F04F884685B017461E460546002469
:102FE00000283ED0002A3ED003948DF80B400029E3
:102FF00035D09DF83890DFF874A009F00109DAF8AF
:10300000003003A92846984783460398DAF8003031
:103010000021284498470246B9F1000F11D15946C2
:10302000384606F055FA03B2002B14DC039B984592
:10303000E5D8002C01DDA41B24B2204605B0BDE874
:10304000F08F019059460DF10B00FFF7A3FF019A95
:103050000028E4D0EAE73444044424B2E6E70C460E
:10306000EBE70446E9E71446E7E700BF0C00002061
:103070002DE9F04F91B099469DF868300493CDE961
:103080000212074600285AD0002900F0DD80049B78
:1030900013F00203059347F6184318BF994600231F
:1030A0008DF82F300C930C9B009307EB030BFB5C0C
:1030B000002B3BD0B9F1000F38DD059A47F61843D5
:1030C000002A08BF4B460793604B00251B680F95ED
:1030D000CDE90D550EA9584698470E9B0F93049BBA
:1030E000019503F0010380464FF0FF34AA462E46B7
:1030F0002A4608930D991BF8011019BB631C70D068
:10310000BAF10B0F7AD8009B002B40F08880A4B254
:10311000A9EB05090C9B0FFA89F9002C40F082807D
:103120005BB94A4B0CA91B68384698470C9B23B9DE
:10313000464B0CA91B6838469847BDF8300011B0C3
:10314000BDE8F08F414B0FA91A68584690470AF125
:1031500001030693089B02467BB1099041460DF19D
:103160002F00FFF717FF099A38B10E9B0D930F9BA5
:10317000DDF818A00E939046BCE7029809924146EC
:1031800006F0A6F9064400B20028C8BF039B099ABE
:10319000B6B2C4BFF618B6B2601C36B207D1039BF4
:1031A000F11A079B9942C4BF0D9CCDF804A0B8F159
:1031B0000A0F10D0B8F10D0F0DD0254B0021C8B269
:1031C000185C20B9B4F1FF3F08BF3546CDE7804514
:1031D00001F10101F3D10D9900298FD1611C8FD12B
:1031E0003546BAF1000F04D0B8F10D0F03D10A2A09
:1031F00001D10E9B0D93BDF8344089E7019B022B52
:1032000081D90D94019C0334A4EB0A04002CF2DD57
:10321000104B0DA91A6858469047013CF6E7002567
:103220002C4675E71C443B780C940A2B3FF47EAF88
:103230000D2B3FF47BAF3B5D0A2B02D00D2B7FF4AF
:1032400032AF01340C9471E7029878E70C0000204B
:10325000B0A90100100000202DE9F04F87B0002533
:1032600098469DF84830BDF940B0BDF944A004939C
:1032700004461646058045800F46F9B1F2B113F0B9
:10328000020F47F6184318BF9A46137A03935B441C
:1032900005937B5D07EB05099BB955B119F8013C16
:1032A0000A2B01D00D2B04D1039B62885B4413448D
:1032B0006380B4F9023003BB039B638007B0BDE8B1
:1032C000F08F049B00934246534631464846FFF731
:1032D000CFFE6388059A13446380049B00930146E4
:1032E0004346054432464846FFF772FEB4F90030C3
:1032F0009842B8BF18462080CBE7A3EB0B03DCE76E
:103300007047000010B5044670B183071CBF20F061
:1033100003040434201D10F0BDFF20B1640044F00C
:10332000010440F8044B10BD0048FCE7844C002029
:10333000064B984208D038B110F8043C6FF30003F4
:1033400000F8043D10F0AEBF704700BF844C002071
:1033500040B1054B984204D050F8040CC0F35E0015
:1033600070470020704700BF844C0020F8B50E461F
:10337000044630B110F8043C13F0010F14BF0446AA
:1033800000242046FFF7E4FFB042074612D0304643
:10339000FFF7B8FF054658B154B14FB1B7423A46AE
:1033A000214628BF324610F085FF2046FFF7C0FFB8
:1033B0002846F8BD2546FBE72DE9F047089D8046E5
:1033C0000F46144699460CB9264612E04FEA540AB5
:1033D00009FB0A7631464046A847002808DDE44349
:1033E00004F00104AAEB040A06EB09075446EAE7D5
:1033F000FCD13046BDE8F08707B5019249B10068BD
:10340000043008441146042231B10DEB020110F0E2
:1034100051FF03B05DF804FB10F05AFFF9E707B560
:10342000019241B1006808441146042231B10DEB0C
:10343000020110F03FFF03B05DF804FB10F048FFFD
:10344000F9E70023C0E901338B071CBF21F003011A
:1034500004310160704738B5044600680830FFF752
:1034600051FF054698B1014600222046FFF7D7FFDD
:10347000294662682046FFF7BFFF616819B12A46F6
:103480002046FFF7CCFFA368656003B9A560284616
:1034900038BD38B5044600680830FFF733FF0546ED
:1034A00098B1014600222046FFF7A6FF2946A268F0
:1034B0002046FFF7B4FFA16819B12A462046FFF75E
:1034C0009BFF6368A56003B96560284638BD00B1FD
:1034D0004068704700B18068704707B500230193CA
:1034E00038B103680422043319440DEB020010F0D4
:1034F000E1FE019803B05DF804FB07B500230193DA
:1035000030B10368042219440DEB020010F0D2FE22
:10351000019803B05DF804FBF8B50E46054660B3AC
:1035200069B34368994207D1FFF795FF002838BF78
:10353000002004462046F8BD00680830FFF7E2FE90
:1035400004460028F6D031462846FFF7D6FF22462B
:10355000074601462846FFF74FFF3A4621462846D0
:10356000FFF75DFF224631462846FFF758FF3246F7
:1035700021462846FFF740FFDCE70446DAE70C4621
:10358000D8E770B50D46044608B3436899420ED19A
:1035900029462046FFF7A1FF0146606008B9A060F8
:1035A00070BD00222046BDE87040FFF738BF836839
:1035B00099420ED1FFF7A1FF0146A06008B96060F3
:1035C000EEE720460022BDE87040FFF715BF002956
:1035D000DED029462046FFF790FF294606462046C2
:1035E000FFF77BFF3146024605462046FFF704FF02
:1035F00032462946D6E770B5044608B1456805B994
:1036000070BD29462046FFF768FF2946064620463A
:10361000FFF7B7FF2846FFF78BFE3546EFE770B59B
:103620000C461E4611461546FFF7ABFFA6B1002219
:1036300029462046FFF7F3FE294662682046FFF739
:10364000DBFE616819B12A462046FFF7E8FEA36851
:10365000656003B9A56070BDA26829462046FFF7E2
:10366000DEFE294632462046FFF7C6FEA16819B1A4
:103670002A462046FFF7C0FE6368A560002BEAD10A
:103680006560E8E79142F8B504460D46174622D03A
:1036900012B31146FFF731FF0646AE421BD0294652
:1036A0002046FFF76EFF2A4631462046FFF7A4FE6C
:1036B000324629462046FFF7B2FE2A4639462046C2
:1036C000FFF7ADFE3A4629462046FFF795FE07B9BB
:1036D000A56006B96560F8BD08B18668DDE70646F5
:1036E000DBE730B1436833B98068B0FA80F0400955
:1036F00070470120704700207047000008B504485B
:103700001421FFF79EFE034B01221A7008BD00BF73
:10371000105F00209C4C002038B52848FFF7D7FEEA
:10372000054698B1254C2B7C03F00703032B294653
:103730001DD82248FFF7F0FE044606F0F1FF0346CD
:1037400088B91F48224606F0FBFFFEE71B48FFF73B
:1037500082FE044606F0E4FF034620B918482246DC
:1037600006F0EEFFFEE7B4B90024204638BD20463F
:10377000FFF7B3FE05460028D5D11048FFF789FEB4
:10378000044606F0CDFF0028EDD10D4822462B4619
:1037900006F0D6FFFEE74FF4FA732360237C23F094
:1037A0000F0343F0030300252374A56004F000FC1D
:1037B000044B60600122E5601A70D6E7105F0020BC
:1037C000B8A901009D4C002010B5014604460748E9
:1037D000FFF7D7FE2046FFF7ABFD054B1B68A34262
:1037E00002BF044B01221A7010BD00BF105F002001
:1037F000505F00209E4C002038B50446406804F01D
:10380000DDFB2368834217D804F0D2FB0B4D0C4A32
:10381000606000232B701370A36833B9237C1B07EF
:1038200008D52046FFF7D0FF04E0204698472B78C4
:10383000002BF3D0012038BD0020FCE79E4C002077
:103840009D4C00202DE9F74F3F4D2C7834B90123D2
:103850002B703E4B1B7823B900232B7003B0BDE8BF
:10386000F08F04F0A5FB3A4B3A4E18600193A34643
:10387000DFF8E880384886F800B088F800B0FFF735
:1038800026FEDFF8E890C9F80000CA46DAF8001012
:10389000B9B13148FFF721FE0746DAF80000037C92
:1038A00013F007020DD0A04203D1CAF80070002423
:1038B000ECE7052A2BD1FFF79FFF284B1B78002B45
:1038C0003BD0019B264C1868264E04F077FB2368FA
:1038D00018442060306804F071FBB0F5FA7FBBD368
:1038E0002268642353434FF4FA72B3FBF2F3DBB262
:1038F000642B98BFC3F164031B4A94BFDBB200235F
:1039000013700023236004F053FB3060A4E734B14C
:10391000227C03F0070302F007029342CDD9FFF7A0
:103920006BFF0028C9D098F80030002BC9D133783C
:10393000002BC6D1D9F800409AE73378002BC0D1CC
:10394000CAF80070A2E700BF884C00209C4C002001
:10395000904C00209E4C0020105F00209D4C0020C9
:103960008C4C0020984C0020944C0020505F00208C
:10397000037C03F007038B4270B504460D4614D058
:103980000D480D4EFFF7A3FD024632B1137C03F044
:1039900007039D420ADBA24203D007482146FFF7F6
:1039A00071FE237C65F30203237470BD114630461B
:1039B000FFF793FD0246E8E7105F0020F7B50F46DA
:1039C0001D4601920646FFF7A7FE044606F0A8FE34
:1039D0000199034620B90748224606F0B1FEFEE7EA
:1039E0002CB1A66027602046FFF7C2FFE5602046A5
:1039F00003B0F0BDB8A9010010B5044604F0D8FA30
:103A00002368DB430344636010BD8380BDF900304D
:103A100001804280C3807047038801391944818046
:103A20007047438801391944C180704770B5C38815
:103A30008488068845880180428021441A44891B75
:103A4000521B8180C28070BDB0F90030B0F90420F3
:103A5000D21AB0F90630B0F90200181A013002FB90
:103A600000007047B1F9003070B5B2F90050B1F9FB
:103A70000240B1F90460B1F906109D42B8BF1D467D
:103A8000B2F902300580A342B8BF2346B2F9044020
:103A9000B2F906204380B442A8BF34468A42A8BF88
:103AA0000A46A5428480C28004DC9342CCBF002039
:103AB000012070BD0020FCE7B2F9003010B5B1F96B
:103AC0000040A342A8BF23460380B1F90240B2F9E7
:103AD0000230A342A8BF23464380B1F90440B2F9A3
:103AE0000430A342B8BF23468380B2F90630B1F94F
:103AF00006209342B8BF1346C38010BDB1F9003011
:103B0000B0F900209A4210DCB0F904209A420CDB94
:103B1000B1F90230B0F902209A4206DCB0F9060091
:103B20009842B4BF00200120704700207047B0F9D0
:103B30000020B1F904309A4214DCB0F90420B1F944
:103B400000309A420EDBB0F90220B1F906309A42F9
:103B500008DCB0F90600B1F902309842B4BF002089
:103B60000120704700207047B0F90020B1F9003003
:103B70009A4214DBB0F90220B1F902309A420EDB0E
:103B8000B0F90420B1F904309A4208DCB0F906001B
:103B9000B1F906309842CCBF0020012070470020C8
:103BA0007047B0F91A30028B9A421CBF9B0293FBFC
:103BB000F2F3D0E9042008BF4FF48063801A434336
:103BC00002EBA32318B270472DE9F0414348434C60
:103BD0008AB0FFF77CFC90B9414DDFF80881286876
:103BE0003E4E04F0EBF907463C48FFF770FC0446F4
:103BF00084B904F0DDF928600AB0BDE8F08190F8DE
:103C000020306FF3C30380F8203001462046FFF7D1
:103C100064FCE0E7002388F8003094F820301807AF
:103C200056D443F0080384F82030638B3B441BB226
:103C3000002B63834CDB228B9342C8BF6283A36853
:103C400020469847636801460BB120689847B4F94D
:103C50001A20238B9A421ADB94F82030990703D05C
:103C600003F00702052A1AD12422214601A810F0E8
:103C700021FB21463046FFF784FC2046FFF758FB26
:103C8000012388F80030049B0BB101A8984798F8ED
:103C90000030EBB13046FFF71AFC0446A8E7E28B90
:103CA00052426283DA07F2D513F0040302BFA28BFB
:103CB00052426283B3FA83F394F820205B0963F3E2
:103CC000820284F82020D4E90432C4E90423DEE728
:103CD00021463046FFF701FCDFE700BF585F0020B8
:103CE000A04C00209F4C002010B524210748FFF76E
:103CF000A8FB04F05DF9064BBDE8104018600322F4
:103D0000044800232121FFF759BE00BF585F00205F
:103D1000A04C0020C93B00002DE9F84F064615488D
:103D2000DFF850B0DFF850900D46FFF7D0FB4FF0B2
:103D3000000804464FF0010A14B94046BDE8F88F68
:103D400021465846FFF7C9FB2368B34207460ED108
:103D50006368AB4200D055B921465846FFF711FCC5
:103D60002046FFF7E5FA4FF0010889F800A03C462D
:103D7000E2E700BF585F00209F4C0020416838B543
:103D8000054611B10068FFF7C7FF1148FFF763FB55
:103D9000044606F0C5FC034620B90E48224606F04C
:103DA000CFFCFEE79CB195F820306FF3820385F8D5
:103DB000203024222946204610F07CFA63681BB18B
:103DC000B4F9101020689847034B01221A7038BDCF
:103DD000585F0020B8A901009F4C00208A1A82EA8F
:103DE000E271A1EBE2714FF47A724A43B2FBF0F058
:103DF000012838BF01204FF6FF73984228BF1846AC
:103E000080B27047C1EB0121C2EB0222642330B5BE
:103E10008CB291B2B4FBF3F414F0FF02B1FBF3F1F6
:103E2000C9B20AD1CA084FF0000062F30400890841
:103E300061F34A1062F3CF2030BD4FF4B473C0EB8E
:103E40000020B0FBF3F02B2384B2B4FBF3F46FF04B
:103E50002A03E4B203FB040303EB43035B00DBB27E
:103E600012FB03F5C3F1FF0353432D121B12C2F1E2
:103E7000FF00C5F1FF05C3F1FF0348434D434B432A
:103E8000C0F30720C5F30725C3F30723042C1FD86D
:103E9000DFE804F0050310151A000B462946C0F3AD
:103EA000C700C3F3870340EA4313C1F3C70043EAE3
:103EB000C020C1E70A46014618461346EFE70A4606
:103EC0002B4601461046EAE70A4619460346F9E73B
:103ED00003462846E3E730B5B1F900500580B1F953
:103EE0000240B2F9001044804B1BB2F902208180DD
:103EF000002BB8BF5B428D42B4BF01214FF0FF31B0
:103F0000C181111B0029B8BF49421BB209B2C2804E
:103F10009442B4BF01224FF0FF328B424282DBBF9A
:103F200001EBD172521003EBD3725242CCBF52104C
:103F300012B28B4283818282D8BF00234FF00002ED
:103F4000C8BF01230182C28203760581448130BD4E
:103F5000B0F90810B0F904308B4230B505D1B0F992
:103F60000A20B0F906309A4219D0B0F90C30B0F9F5
:103F70001420B0F91040C2825D42AA4204DD151B34
:103F80008582C58929440181A24206DA828A1344C6
:103F90008382428A438913444381012000E0002048
:103FA00030BD2DE9F04FB3F936609FB015469DF84E
:103FB000A0701C46002E00F08B80B0F90030B1F9E3
:103FC0000020934205D1B0F902E0B1F902C0E64504
:103FD0007ED0B5F900C0ACEB060C634501DA944520
:103FE00076DCB5F904C0B444634501DD94456FDB6C
:103FF000B0F902C0B5F90200B1F902E0801B8445B6
:1040000001DA704564DCB5F906100E44B44501DDF3
:1040100076455DDB981AACEB0E010028B8BF404234
:104020000029B8BF4942884255DD9342B4BFADF87C
:104030003420ADF830200CA90DAA10A8B9BFADF8F6
:1040400032C0ADF836E0ADF832E0ADF836C0B4BFFE
:10405000ADF83030ADF83430FFF73DFFBDF942E048
:10406000BDF94660BDF94010BDF944C0B64534D134
:10407000E38E013B43F34E0003F0010294F8383025
:10408000FF2F18BF7B4312FA80F216FA80F618BF92
:104090001B0AAEEB02026145084612B236B2A8BF57
:1040A00060466145B8BF6146B242ADF86010114646
:1040B000A8BF3146ADF85C00ADF85E10B242B8BFA3
:1040C0003246ADF862202946A28E17A803F04AFBBB
:1040D0001FB0BDE8F08FF445A8E7614525D1E38E18
:1040E000013B43F34E0292B203F00108881A94F8A0
:1040F000383002EB0801FF2F614400B209B21CBF47
:104100007B431B0A88420246A8BF0A468842B8BFC2
:104110000846B645ADF85C207246A8BF3246ADF8F9
:104120005E20ADF860007246C8E706F051F904F071
:104130000FF880460646E0B19DF85860002E60D02A
:10414000BDF94220BDF946309A4244DABDF8442018
:10415000ADF85C20013B17AA0CA910A8ADF85E30A1
:10416000FFF7B9FEBDF95230002BB8BF5B42ADF886
:10417000523094F838A0FF2F1CBF0AFB07F74FEA14
:10418000172A06F025F903F0E3FFBDF8401003906D
:10419000BDF84400BDF84620BDF944E0BDF94090AB
:1041A000BDF94680BDF942B0471A3BB20293BDF853
:1041B00042309DF85870A2EB030C0FFA8CFC002FD4
:1041C0004FD0B044C3454FDA9B1AADF83830029B4C
:1041D000ADF83A304DE012DDBDF84420ADF85C207A
:1041E000013317AA0CA910A8ADF85E30FFF773FED3
:1041F000BDF95230002BC8BF5B42ADF852300026EB
:10420000B7E7BDF94020BDF944309A4214DA013BCA
:10421000ADF85C3017AABDF84630ADF85E300CA999
:1042200010A8FFF758FEBDF94E30002BB8BF5B4217
:10423000ADF84E3046469CE79BDD0133ADF85C306F
:1042400017AABDF84630ADF85E300CA910A8FFF7EC
:1042500042FEBDF94E30002BC8BF5B42ADF84E3078
:1042600087E7B644F145AFDA091AADF838C0ADF8C2
:104270003A10BDF938301B01ADF83830BDF93A308D
:104280001B01ADF83A30B4F9363002934FEA4309D6
:104290000FFA89F94FEA890003F06CFD029B07468B
:1042A000002B00F0CF834FF0000817A80FA90EAA2B
:1042B000CDF83C80FFF70FFE029B414603FB03FB5A
:1042C00009F1FF3903460FFA81F8C84502DBDDF832
:1042D0000880BEE307EB8802BDF96400BDF966C043
:1042E00027F82800A2F802C0BDF966C00CFB0CFC40
:1042F00000FB00C0834501F1010220D8039B002B85
:1043000000F0A38301F1FF380FFA88F8B8F1000F2D
:1043100040F09F834FF001089DF85830002B00F0CB
:104320008483BDF94630BDF942201E44B24202DB0F
:104330007B88013B7B80002302931A469AE3184650
:104340000492FFF705FE049A17AB1146BBE7BBF8D2
:104350000030099ABBF802900893A3EB020C0A9A6A
:10436000039BA9EB02021FFA8CFE91B20FFA8CFCA0
:1043700012B2ABF800C0ABF80220002B4BD0059B6B
:10438000002B48D000285DD03BF9043C634542D067
:1043900007EB860307935B8837F826E0BDF842C039
:1043A000CA1A90B208900A98A0EB0909BDF840001B
:1043B00001387044BDF952E09944BEF1000F12B2C9
:1043C0000FFA89F900B22CDA0CF1010CA38EADF8CA
:1043D000003061442B4609B2CDF804A003F01CFD67
:1043E000079BBDF846105B8801311944089B0B44BC
:1043F0001946BDF8440037F82630CDF804A0013046
:104400001844A38EADF800304A462B4609B200B2DC
:1044100003F002FD059E069B013306930BF1040B8E
:1044200031E303EB0C01A38EADF8003009B22B464B
:10443000CDF804A003F0F0FC079ABDF8463051888F
:104440001944D6E73BF9021C9142E4D037F826C064
:10445000BDF84210BDF84000AEEB0C0207EB86033E
:10446000079393B20B9313B207EE903A079BB3F8FE
:104470000290DDE9082301394944A3EB0209BDF9A3
:104480004E30E144002B09B20FFA89F927DA0130E6
:10449000A38EADF8003070442B4600B217EE902A80
:1044A000CDF804A003F0E7FC079BBDF846105B883D
:1044B000BDF844000131194437F826300130184462
:1044C0000B9B03441846A38EADF80030CDF804A032
:1044D0002B464A4609B200B203F0CDFC9AE7A38E00
:1044E000ADF8003060442B4600B217EE902ACDF8AC
:1044F00004A003F0C0FC079BBDF846105B88BDF824
:1045000044000131194437F826301844DBE73144C0
:10451000ADF8003009B22B46CDF804A003F07CFCC6
:10452000BDF85220BDF84630B8F802104A44B21A1D
:104530001944F7E2069A37F82290A9EB0B0290B2E1
:104540000890BDF94E000139314410FA82F200287A
:10455000A68E09B212B228DA09EB030000B22B468C
:10456000CDF804A0ADF8006003F085FCBDF846105E
:10457000B8F80230BDF84400BDF84E2001311944AE
:10458000079BFB5A1844089B4A440344ABEB0202C6
:104590001846A38EADF80030CDF804A02B4612B219
:1045A00009B200B203F067FCCDE20BEB030000B2EE
:1045B0002B46CDF804A0ADF8006003F05CFCBDF81C
:1045C0004610B8F802300798BDF84E20385A01312D
:1045D0001944BDF844304A44ABEB02021844D8E712
:1045E000039B002B40F0AF82DDF80C90CB46C1E27C
:1045F000BDF95230B4E23288BDF83C30BDF83E100F
:104600001A4492B2ADF85C2073880B44BDF83C109C
:104610000CF1FF3CACEB010C1BB26244ADF85E3018
:10462000ADF86020ADF86230A28E5346294617A837
:1046300003F098F8089BB3B1B6F9002036F9043CB2
:104640009A4210D0B8F1000F0DD1BDF85230BDF82C
:104650005E10BDF95C00CDF800A0C91A2A46A38EF1
:1046600009B203F032F8079B013307930436BDF912
:104670001C30029ABDF948C008939342BBDB039BF0
:10468000002B33D0BDF83C007988BDF83E30BDF832
:104690003C2019443B88CDF804A0A2EB0C0218443E
:1046A000A1EB0B01A38EADF8003012B22B4609B27C
:1046B00000B203F0E0FBBDF83C00BDF84810BDF8C7
:1046C0003E30BDF83C208A1A059949881944059B5B
:1046D0001B88CDF804A018444944A38EADF80030DF
:1046E00012B22B4609B200B203F0C5FBBDF9483047
:1046F000ADF83C30BDF94A30ADF83E304FF000081F
:10470000BDF94A6010A8FFF723FC002800F088805C
:10471000BDF94A30B342F5D000233E460793A6E7E1
:10472000049BBDF83C201B88BDF83E10BDF83C0042
:1047300013449BB2049AADF85C3052880A44BDF829
:104740004810091A12B20B44ADF85E20ADF8603083
:10475000ADF862205346A28E294617A803F002F84E
:10476000079BBBB1049BB3F9002033F9043C9A4288
:1047700010D0B8F1000F0DD1BDF85230BDF85E1069
:10478000BDF95C00CDF800A0C91A2A46A38E09B273
:1047900002F09BFF049B043301360493029A33B268
:1047A00093420793BCDB039B002B3FF491ACBDF815
:1047B0003C30BDF84820BDF83E00BDF83C10521A10
:1047C000798801443888CDF804A0A1EB0B01184486
:1047D000D243A38EADF8003012B22B4609B200B21C
:1047E00003F049FBBDF84820BDF83C30BDF83EB0B1
:1047F000BDF83C1006980132521A059937F820008E
:104800004988CDF804A0594449441844A38EADF812
:10481000003012B22B4609B200B203F02CFB57E471
:104820000646BBE73188BDF83C30BDF83E00194470
:1048300009B2ADF85C107388ADF86010BDF83E1099
:104840000344013A521A9BB2ADF85E301344ADF8FE
:104850006230A28E5346294617A802F083FF089BB8
:10486000ABB1B6F9022036F9023C9A420FD0079B51
:104870006BB9BDF84E30BDF85C00BDF95E10CDF8E7
:1048800000A0C01A2A46A38E00B202F01EFF08F153
:10489000010804360299BDF94A200FFA88F38B42C9
:1048A0000893BFDB039B002B32D0BDF83C60BDF802
:1048B0003E10BDF83E3038889A1A7B88CDF804A0A7
:1048C00030441944A0EB0B00A38EADF8003012B2B7
:1048D0002B4609B200B203F09FFABDF83C30BDF898
:1048E0004A00BDF83E10BDF83E20821A0598408867
:1048F000014405980088CDF804A018444844A38ECC
:10490000ADF8003012B22B4609B200B203F084FABF
:10491000BDF94830ADF83C30BDF94A30ADF83E3015
:10492000002336E1049ABDF83C301288BDF83E10F1
:104930001A4412B2049BADF85C205B88ADF860208D
:104940000B44BDF84A20BDF83E109BB2521AADF898
:104950005E301344ADF86230A28E5346294617A844
:1049600002F000FFB8F1000F16D0049BB3F902204B
:1049700033F9023C9A420FD0079B6BB9BDF84E3019
:10498000BDF85C00BDF95E10CDF800A0C01A2A4643
:10499000A38E00B202F099FE049B04330136049307
:1049A000029B0FFA86F89845BCDB039B002B3FF473
:1049B0008FABBDF83C30BDF84A20BDF83E10BDF8C5
:1049C0003E00121A788801443888CDF804A01844B3
:1049D000A0EB0B00A38EADF80030D2432B4612B2F1
:1049E00009B200B203F018FABDF84A20BDF83CB095
:1049F000BDF83E10BDF83E300132D21A059B5B88EF
:104A00001944069B37F82300A38EADF800305844B4
:104A10004844CDF804A02B4612B209B200B203F00C
:104A2000FBF9FFF755BB0646BAE7BDF94420BDF9CF
:104A300040101644B14202DB3A88013A3A800293B0
:104A40001A4617E0BDF90C8066E4B8F1000F3FF498
:104A500063AC08F18043013B07EB830237F9233055
:104A6000B2F90220CDF8088003EBD37302EBD272C7
:104A70005B1052109BB20021099393B20497BB467E
:104A800006910E460A93BDF91830029A9DF8580017
:104A900005939342FFF65BAC08F18043013B06931C
:104AA00007EB83030593002A3FF49AAD039B002B89
:104AB0003FF49AAD07EB8608B30037F826B00793AA
:104AC000B8F80260BDF84030BDF8421000283FF44D
:104AD00031AD059ABDF952C0B2F80290A9EB0602B9
:104AE00090B20890581E1CFA82F25844BCF1000F94
:104AF000A38E12B200B2BFF60AAD4944ADF8003041
:104B000009B22B46CDF804A003F086F9B8F80230BC
:104B1000BDF84610BDF852201944089B4A440B4486
:104B2000B21A1946079BBDF84400FB5ACDF804A001
:104B300001301844A38EADF8003012B22B4609B2F2
:104B400000B203F069F9029BB3F1000B9DF85830F5
:104B500018BF4FF0010B002B7FF44AADBDF94E306A
:104B6000002BB5BFCBF100090FFA8BFB4FF0FF3BD9
:104B70004FF00109BDF940309DF85880ADF83C3048
:104B8000BDF94230ADF83E30B8F1000F7FF4B8AD5A
:104B90000123BDF94860079310A8FFF7D9F9002851
:104BA0003FF441AFBDF94830B342F5D03E464FF037
:104BB00000086FE60020704738B50D6A0C4645B115
:104BC000286808B1FEF7B4FB2846FEF7B1FB0023C6
:104BD000236238BD38B50C7B012C0A4614D00B7CFF
:104BE00003F01F031D1F022D07D824B94B689B68D3
:104BF0005361012038BD0023FAE7193303F01F0386
:104C0000072B01D9FFF7D8FF0020F3E738B5084696
:104C10000D46144603F09EF8C0B92B78C3F3040385
:104C2000043BDBB20A2B10D86B88628829685B09C9
:104C300063F34F1262802368094A23F01F1323F4A1
:104C40007C430A4013432360012038BD022804D16D
:104C5000236803F47872034BF4E70020F5E700BF04
:104C60001FFC1F000B04200010B50446006858B15B
:104C7000C3680BB121469847237B012B04D16068A0
:104C8000FEF756FB0023636010BD000010B50A4814
:104C9000FEF7E1FB044605F043FD034620B9074853
:104CA000224605F04DFDFEE724B1102200212046EA
:104CB0000FF00EFB204610BD385F0020B8A90100A0
:104CC00008B50C481021FEF7BCFBFFF7DFFF40B929
:104CD00005F026FD68B908480022002305F030FDE4
:104CE000FEE7064A0260064A4260064A8260064AB9
:104CF000C26008BD385F0020B8A901000D4C00005B
:104D0000D54B0000B54B0000B94B0000A0F13003BB
:104D1000DBB2092B0AD9602884BF2038C0B2A0F1C9
:104D20004103052B9ABF3738C3B20023184670479A
:104D30002DE9F04F2DED028BA9B083460693002399
:104D40000D93349B9DF8D4A01B78389E099115468D
:104D5000002B00F0B1801AF0020F576A40F0B180CA
:104D60008388028801339B1A1BB208EE103A97F829
:104D700008906B8DBBF90220ADF8522099441FFAC0
:104D800089F30A930FFA89F30593BBF80030ADF865
:104D90005030369B002B00F02482B3F900300E9384
:104DA000369BB3F90230D118ADF85210002E00F046
:104DB0001C82002B40F01982002A80F21682B36810
:104DC0009B1A059A002BB8BF5B42C2F50072B3EB89
:104DD000420FC4BF4FF0FF3333603468002CC0F281
:104DE0000482BDF8522073681344ADF852303498F1
:104DF000B5F92820CDF800A018EE103A3946204425
:104E0000FEF736F900EB0409059ABDF95230134458
:104E1000099AB2F902209342349B67DB18191AF001
:104E20000403119300F08B80A9EB0401B5F928303D
:104E3000CDF800A03A4689B2FEF7CAF8BBF80430B4
:104E4000BBF8002001339B1A1BB2181ABDF8503072
:104E500000EBD07003EB6000ADF8500095F82C30FB
:104E60000793069BFF2B1FBFDDE9062353431B0A55
:104E70000793379B002B7BD01B880693379B5B885F
:104E80000593DDE90523934201D9CDE905329F4918
:104E900018A804F048FB6B8CADF86430ADF86230B4
:104EA00000230C930AF001031093349B23440B93CB
:104EB000349B1B5D002B60D129B0BDEC028BBDE89B
:104EC000F08F47F61843CDF808A00193B2F92A30C5
:104ED0000093B2F9283034993A4618A8FEF7BCF985
:104EE000BDF9603041E7369B0E9365E703EB090897
:104EF000B5F92820CDF800A018EE103A3946404602
:104F0000FEF7B6F8BDF852300A9A13441BB2484473
:104F1000ADF8523066B113F5806F09DB3268002AB4
:104F2000BFBFBBF90220C6F800909B1AC6E9013248
:104F300098F800304C46002BBED0814664E71AF04A
:104F4000080F8BD0A9EB0401B5F92830CDF800A0EB
:104F50003A4689B2FEF73CF8BBF80430BBF80020B3
:104F600001339B1A1BB2181ABDF85030184473E76E
:104F70004FF6FF73CDE9053389E7369B2BB1BDF8BA
:104F800050300E9A1344ADF85030002615961599FE
:104F9000A9EB04038B423FD8349BB5F92820CDF808
:104FA00000A003EB0904394618EE103A2046FEF73C
:104FB0005FF8BBF80030ADF85030119B014600EBB4
:104FC0000906002B00F0F580B5F92830CDF800A0D7
:104FD0003A462046FDF7FCFFBBF80430BBF8002042
:104FE00001339B1A1BB2181ABDF8503000EBD07079
:104FF00003EB6000ADF85000BDF852300A9A13443C
:10500000099AB2F906201BB29A42ADF852304C46CA
:10501000FFF652AFB14648E7069A4FF6FF739A4241
:1050200026D0059A9A4223D0394B34981B682144E4
:10503000984783B2DFF8DC800B98D8F800200F93F4
:1050400015A990470B9B08901598D8F800200021CF
:1050500018449047DDE90F310246002951D00899E4
:1050600023290DD136B9BDF85430109E0C938EE72C
:105070000023DFE7012E4FD0022E4ED1002686E717
:10508000012E3ED1089B202B81D1159B0C9A9B1A97
:10509000072B34D1DDE90B310622591816A80FF081
:1050A00009F99DF85800FFF731FE02469DF85900B6
:1050B000FFF72CFE00EB02129DF85A00FFF726FEC8
:1050C00001469DF85B00FFF721FE00EB01119DF802
:1050D0005C00FFF71BFE06469DF85D00FFF716FE1D
:1050E00000EB0610C0F3C403C1F3850143EA41138A
:1050F000C2F3C40243EAC2230D93022647E72B8C76
:10510000FAE7022E09D10D9908E000BF7C62002069
:10511000080000200C0000200026298CADF83C106F
:1051200038460899139304F0D3F903B21293069BFF
:105130004FF6FF729342804623D0059B934220D0C6
:10514000069B1A46139B9A421BD8059A9A4218D975
:10515000BDF95030298DADF85830013B0B44034464
:10516000BDF95220ADF85C300A9BADF85A20013AE7
:105170001A44ADF85E20079B099918AA16A800F0FA
:105180009DF8079B0193BDF83C30ADF800300999BC
:10519000089B3A4614A802F08DFB129B002B7FF768
:1051A000F6AEBDF850002B8D18448044ADF8508009
:1051B000EDE61AF0080F3FF41FAFB5F92830CDF82F
:1051C00000A03A462046FDF703FFBBF80430BBF8C9
:1051D000002001339B1A1BB2181ABDF85030184436
:1051E00008E7002E7FF47FAE0E960024FFE500BF97
:1051F00070B5C2F1FF05C1F345146C43C0F345130C
:1052000001F01F0603FB02436E4300F01F04C1F3CD
:10521000C42104FB0264C0F3C4206943DB08C4F367
:10522000042400FB021203F4FC632343C2F30720AF
:1052300043EAC02070BD70B50E460446154605F021
:10524000C7F802F085FFB4EB660F4FEA660303DB95
:105250009CB20CB1631E9CB2B4EB650F4FEA6503C0
:1052600003DB9CB224B1631E9CB20CB1201A84B241
:10527000204670BD022805D10C4B5B5C13FB02F28B
:10528000100A7047032801D1094BF6E7042801D121
:10529000084BF2E7431EC1EBC101B1FBF3F1064B32
:1052A000C9B25B5C13FB02F0000A7047C6A901009B
:1052B000C8A90100CBA90100CFA901002DE9F04F39
:1052C0002DED068BA5B09146C28806934388013226
:1052D000D21A12B2002A82468B4640F37B8681881E
:1052E00003880131C91A09B2002940F37386B9F95C
:1052F0001230002B00F0CA82B9F80600FFF79BFFBE
:105300005146044608221AA80EF0D4FFBDF86830B2
:105310002344ADF86830BDF86C301AA91B1B584601
:10532000ADF86C30FEF720FC002840F0AF82082278
:1053300051461AA80EF0BEFFBDF86E00BDF86A30E7
:105340001AA92344041B5846ADF86A30ADF86E40E4
:10535000FEF70AFC0746002840F0988299F81430BE
:10536000012B40F00E8205F033F802F0F1FEB9F99E
:105370001230BAF806200393BAF80230BAF80410D3
:105380000132D21ABAF800300131C91A054609B201
:1053900012B2B9F80600FFF74EFFACB210FA85F072
:1053A000BDF80C5083B204936E0003B20E93013625
:1053B000039B36B203FA80F306F10308181D28F0A8
:1053C000030820F003004FEA880808EB4008420079
:1053D00040440893059202F0CDFC059A02900346E2
:1053E000134409930346434439460DF164080DF113
:1053F00062070A930EF06CFF0E9A39464046FDF79D
:10540000B5FC4046FDF7B9FC00284BD1069A99F847
:105410000830FF2A1CBF53431B0AC3EBC35213FBC4
:1054200006F306FB06F152025B02002007B2BE4201
:1054300048DCBAF80430049A1B1B9B1A9AB21BB2C0
:105440001393BAF806301292049A1B1B9B1A9AB255
:105450001BB20F93BAF802300B92049A2344134400
:105460009AB21BB21193BAF8003010921C44049BFC
:1054700007921C44A3B214936D4223B215932BB22E
:105480001693079A109B9B1A1BB20593059A089BCB
:105490009342C0F2FB81029B03EB4205039B002475
:1054A000584233E0BDF966200299BDF9643021F815
:1054B0001230BDF9662021F8132040463946FDF729
:1054C00065FC9EE7099FB3FBF1FC134447F820C03D
:1054D0000130ABE7169A0021039B934201DA0022C8
:1054E0000EE0059BD71840F1A3802B88049EF31A89
:1054F0001B1B1BB2834280F2A680161A72427241B5
:105500000A9B090A19550134A4B212B9089BA34297
:10551000E0DA059A029BBDF91C7033F81230129A3A
:10552000BDF92C8001321A4492B20C92149A013ABD
:10553000D31A9BB20D930A9B01265D1CBDF9303036
:10554000BDF93400A64208EE103AC0F08B80059BEE
:10555000002B64D104F03CFF02F0FAFDBAF80620FB
:10556000BAF80230BAF80410B9F912800132D21A2E
:10557000BAF800300131C91A044612B209B2B9F8BA
:105580000600FFF758FEBAF80420A5B210FA84F01E
:10559000531CBAF802405B1B29191BB21FFA80FC8E
:1055A000ADF8703011FA80F0ADF87430BAF8001030
:1055B000BAF806304F1E5E1B2944521B013C0133D2
:1055C000A6EB0C062F4461442C44A2EB0C0C5D1B93
:1055D00024B200B236B23FB209B20FFA8CFC2DB23F
:1055E000ADF88240ADF88640ADF87200ADF8766057
:1055F000ADF87870ADF87A00ADF87C70ADF87E60EB
:10560000ADF88010ADF884C0ADF88810ADF88A50C0
:10561000ADF88CC0ADF88E500124A04568DA0B9B24
:1056200001339BB20B93079B013B9BB2079328E787
:105630000E9BBB42FFF653AF2B88E618029B33F854
:1056400017309B1B55E7039E9E42A9BF039E099BF3
:10565000F31A099EB4BF1B6856F82330013219446F
:1056600012B239E7159B834217DD119BBB4209DD5E
:105670002B7800935A46B9F810301790394602F04B
:1056800024F817980F9B434507DA2B7800935A4666
:10569000B9F81030414602F018F8139B18EE102AA2
:1056A000934219DA119BBB4209DD2B78009318EE67
:1056B000100AB9F810305A46394602F006F80F9B26
:1056C000434509DA2B78009318EE100AB9F8103028
:1056D0005A46414601F0F9FF0D9B013B9BB20D93E9
:1056E0000C9B013301369BB2B6B20C93013525E712
:1056F0000A9BB9F810201B5D059359461CA802F0BF
:1057000031F8BDF87020059B0132ADF87020BDF86E
:1057100074200132ADF874205946B9F810201EA843
:1057200002F020F8BDF87820059B013AADF878200A
:10573000BDF87C20013AADF87C205946B9F810201C
:1057400020A802F00FF8BDF88220059B013AADF8C1
:105750008220BDF88620013AADF886205946B9F876
:10576000102022A801F0FEFFBDF88A300133ADF809
:105770008A30BDF88E3001340133ADF88E3024B25A
:105780004BE7002B40F0828004F022FE02F0E0FCA8
:10579000BAF80620BAF80230BAF80410B9F9125073
:1057A0000132D21ABAF800300131C91A09B20446DE
:1057B00012B2B9F80600FFF73EFDA4B204EB4403B1
:1057C000184483B2029303B20493049A6319101D20
:1057D0000FFA83F8033320F0030003F0FC034500C5
:1057E00003EB400002F0C6FA20AF06460544049AD7
:1057F0001EA93846FDF7BAFA3846FDF7BEFA00286A
:1058000040F0ED83069A99F80830FF2A1CBF5343F5
:105810001B0A13FB08F1002210B2804500F3EF834E
:10582000029ABAF80030BAF8060013449AB201306E
:105830001BB20792041B029A0B93A3B20A939B1A02
:105840009BB20C93BAF804309F1ABBB2089305932D
:1058500000230293BDF90840049ABDF80830A24223
:1058600080F2D483079BBDF92840ADF88A4001330C
:10587000ADF88830089BADF88E405F1EADF88C7097
:1058800000235C1C9BB24345C0F207845946504636
:10589000FEF74DF9002800F09D8399F80830102B91
:1058A00040F2CA81B9F8066004F092FD02F050FCA3
:1058B000B9F80430BAF806500293BAF80230BAF8D0
:1058C0000410B9F802700135ED1ABAF80030013150
:1058D000C91A069BFF2B18BF069A99F808302DB2FB
:1058E00018BF5343044609B22A4630460CBF9846B7
:1058F0004FEA1328FFF79FFC05EBD573B0EB630F5E
:1059000040F3DF83B9F90660002E00F0958104F0C2
:105910005FFD02F01DFC069B99F80870BAF806209E
:10592000BAF804100B90FF2B18BF069BB9F8024081
:10593000B9F8048018BF5F43BAF8023002F10102DF
:10594000A2EB030213B20293BAF80030029A01F1FB
:105950000101A1EB0301B6B209B230460CBF3D46CE
:105960003D0AFFF768FC0B9B0790BAF800000B9A02
:10597000BDF82C60079910FA83F0079B184483B296
:105980000493BAF8023013FA82F3079A13449AB2D6
:105990001BB21093BAF8063008929B1B5B1A324672
:1059A00099B2BAF8046009911BB21193079BB61A19
:1059B000F61AB3B20593BDF91C3003931AAE1A461A
:1059C00019A93046FDF7D2F9099BBDF86A20BDF848
:1059D000681004981A44059B12B20B44411A0092B5
:1059E0001BB209B220A8FEF710F8099BBDF8682089
:1059F000BDF86A1004981A44059B12B20B44411A70
:105A000000921BB209B222A8FDF7FFFF089BBDF868
:105A10006A20BDF8681004989A1A059B12B20B44CC
:105A2000411A00921BB209B21EA8FDF7EEFF089BB7
:105A3000BDF86820BDF86A1004989A1A059B12B246
:105A40000B44411A1BB2009209B21CA8FDF7DDFFFE
:105A500000230A93099B0AEE106A013314931AEE8D
:105A6000100AFDF78AF9002840F08883444540F089
:105A7000358522462B4659461CA801F073FEBDF918
:105A80007A30BDF972209A4208D0444540F03885FA
:105A900022462B4659461EA801F064FE444540F0BC
:105AA0003F8522462B46594620A801F05BFEBDF9F2
:105AB0008A30BDF982209A4208D0444540F04285A0
:105AC00022462B46594622A801F04CFE0B9B002B88
:105AD00000F0B280BAF80030079A02331344ADF8F0
