:1000000000000820412F00003D2F000015160000C1
:100010002D160000451600005D16000000000000CF
:100020000000000000000000000000003D2F000064
:100030003D2F0000000000003D2F0000A92D000012
:10004000351C00003D2F00003D2F00003D2F00001B
:100050003D2F00003D2F00003D2F00003D2F0000F0
:100060003D2F00003D2F00003D2F00003D2F0000E0
:100070003D2F00003D2F00003D2F00003D2F0000D0
:100080003D2F00003D2F00003D2F00003D2F0000C0
:100090003D2F00003D2F00003D2F00003D2F0000B0
:1000A0003D2F00003D2F00003D2F00003D2F0000A0
:1000B0003D2F00003D2F00003D2F00003D2F000090
:1000C0003D2F00003D2F00003D2F00003D2F000080
:1000D0003D2F00003D2F00003D2F00003D2F000070
:1000E0003D2F00003D2F00003D2F00003D2F000060
:1000F0003D2F00003D2F00003D2F00003D2F000050
:100100003D2F00003D2F00003D2F00003D2F00003F
:100110003D2F00003D2F00003D2F00003D2F00002F
:100120003D2F00003D2F00003D2F00003D2F00001F
:100130003D2F00003D2F00003D2F00003D2F00000F
:100140003D2F00003D2F00003D2F00003D2F0000FF
:1001500081F0004102E000BF83F0004330B54FEA78
:1001600041044FEA430594EA050F08BF90EA020FE5
:100170001FBF54EA000C55EA020C7FEA645C7FEA78
:10018000655C00F0E2804FEA5454D4EB5555B8BF9B
:100190006D420CDD2C4480EA020281EA030382EA0C
:1001A000000083EA010180EA020281EA0303362D9E
:1001B00088BF30BD11F0004F4FEA01314FF4801C71
:1001C0004CEA113102D0404261EB410113F0004F83
:1001D0004FEA03334CEA133302D0524263EB43033A
:1001E00094EA050F00F0A780A4F10104D5F1200ED8
:1001F0000DDB02FA0EFC22FA05F2801841F1000133
:1002000003FA0EF2801843FA05F359410EE0A5F106
:1002100020050EF1200E012A03FA0EFC28BF4CF037
:10022000020C43FA05F3C01851EBE37101F00045ED
:1002300007D54FF0000EDCF1000C7EEB00006EEBFA
:100240000101B1F5801F1BD3B1F5001F0CD3490884
:100250005FEA30004FEA3C0C04F101044FEA4452DB
:1002600012F5800F80F09A80BCF1004F08BF5FEA62
:10027000500C50F1000041EB045141EA050130BD42
:100280005FEA4C0C404141EB010111F4801FA4F1E5
:100290000104E9D191F0000F04BF01460020B1FA3A
:1002A00081F308BF2033A3F10B03B3F120020CDA72
:1002B0000C3208DD02F1140CC2F10C0201FA0CF050
:1002C00021FA02F10CE002F11402D8BFC2F1200CB5
:1002D00001FA02F120FA0CFCDCBF41EA0C0190406B
:1002E000E41AA2BF01EB0451294330BD6FEA0404B4
:1002F0001F3C1CDA0C340EDC04F11404C4F120029F
:1003000020FA04F001FA02F340EA030021FA04F3B0
:1003100045EA030130BDC4F10C04C4F1200220FA07
:1003200002F001FA04F340EA0300294630BD21FA45
:1003300004F0294630BD94F0000F83F4801306BF0B
:1003400081F480110134013D4EE77FEA645C18BFFF
:100350007FEA655C29D094EA050F08BF90EA020F96
:1003600005D054EA000C04BF1946104630BD91EA8E
:10037000030F1EBF0021002030BD5FEA545C05D191
:100380004000494128BF41F0004130BD14F58004D0
:100390003CBF01F5801130BD01F0004545F0FE4144
:1003A00041F470014FF0000030BD7FEA645C1ABF79
:1003B000194610467FEA655C1CBF0B46024650EAB0
:1003C000013406BF52EA033591EA030F41F40021DC
:1003D00030BD00BF90F0000F04BF0021704730B562
:1003E0004FF4806404F132044FF000054FF0000137
:1003F00050E700BF90F0000F04BF0021704730B5F8
:100400004FF4806404F1320410F0004548BF4042CC
:100410004FF000013EE700BF42004FEAE2014FEA21
:1004200031014FEA02701FBF12F07F4393F07F4FFC
:1004300081F06051704732F07F4208BF704793F0FF
:100440007F4F04BF41F40021704730B54FF4607412
:1004500001F0004521F000411CE700BF50EA010215
:1004600008BF704730B54FF000050AE050EA0102BE
:1004700008BF704730B511F0004502D5404261EB2E
:1004800041014FF4806404F132045FEA915C3FF46F
:10049000D8AE4FF003025FEADC0C18BF03325FEA0C
:1004A000DC0C18BF033202EBDC02C2F1200300FABD
:1004B00003FC20FA02F001FA03FE40EA0E0021FAE2
:1004C00002F11444BDE600BF70B54FF0FF0C4CF4D0
:1004D000E06C1CEA11541DBF1CEA135594EA0C0F82
:1004E00095EA0C0F00F0DEF82C4481EA030621EABD
:1004F0004C5123EA4C5350EA013518BF52EA0335F8
:1005000041F4801143F4801338D0A0FB02CE4FF0A9
:100510000005E1FB02E506F00042E0FB03E54FF0D9
:100520000006E1FB03569CF0000F18BF4EF0010ED1
:10053000A4F1FF04B6F5007F64F5407404D25FEACD
:100540004E0E6D4146EB060642EAC62141EA555180
:100550004FEAC52040EA5E504FEACE2EB4F1FD0CC2
:1005600088BFBCF5E06F1ED8BEF1004F08BF5FEA40
:10057000500E50F1000041EB045170BD06F00046F2
:1005800046EA010140EA020081EA0301B4EB5C049F
:10059000C2BFD4EB0C0541EA045170BD41F4801197
:1005A0004FF0000E013C00F3AB8014F1360FDEBFBC
:1005B000002001F0004170BDC4F10004203C35DA98
:1005C0000C341BDC04F11404C4F1200500FA05F31B
:1005D00020FA04F001FA05F240EA020001F00042BC
:1005E00021F0004110EBD37021FA04F642EB060132
:1005F0005EEA430E08BF20EAD37070BDC4F10C045C
:10060000C4F1200500FA04F320FA05F001FA04F21F
:1006100040EA020001F0004110EBD37041F100010B
:100620005EEA430E08BF20EAD37070BDC4F1200516
:1006300000FA05F24EEA020E20FA04F301FA05F27E
:1006400043EA020321FA04F001F0004121FA04F226
:1006500020EA020000EBD3705EEA430E08BF20EAF6
:10066000D37070BD94F0000F0FD101F00046400030
:1006700041EB010111F4801F08BF013CF7D041EAB2
:10068000060195F0000F18BF704703F000465200B6
:1006900043EB030313F4801F08BF013DF7D043EA87
:1006A0000603704794EA0C0F0CEA135518BF95EA3D
:1006B0000C0F0CD050EA410618BF52EA4306D1D1C4
:1006C00081EA030101F000414FF0000070BD50EAE3
:1006D000410606BF1046194652EA430619D094EA6D
:1006E0000C0F02D150EA013613D195EA0C0F05D157
:1006F00052EA03361CBF104619460AD181EA0301AB
:1007000001F0004141F0FE4141F470014FF0000062
:1007100070BD41F0FE4141F4780170BD70B54FF0FD
:10072000FF0C4CF4E06C1CEA11541DBF1CEA13557D
:1007300094EA0C0F95EA0C0F00F0A7F8A4EB05045F
:1007400081EA030E52EA03354FEA013100F0888056
:100750004FEA03334FF0805545EA131343EA12631F
:100760004FEA022245EA111545EA10654FEA0026D4
:100770000EF000419D4208BF964244F1FD0404F58D
:10078000407402D25B084FEA3202B61A65EB0305E9
:100790005B084FEA32024FF480104FF4002CB6EBA6
:1007A000020E75EB030E22BFB61A754640EA0C0026
:1007B0005B084FEA3202B6EB020E75EB030E22BF66
:1007C000B61A754640EA5C005B084FEA3202B6EBA7
:1007D000020E75EB030E22BFB61A754640EA9C0066
:1007E0005B084FEA3202B6EB020E75EB030E22BF36
:1007F000B61A754640EADC0055EA060E18D04FEAF4
:10080000051545EA16754FEA06164FEAC30343EA93
:1008100052734FEAC2025FEA1C1CC0D111F4801F60
:100820000BD141EA00014FF000004FF0004CB6E759
:1008300011F4801F04BF01430020B4F1FD0C88BFF8
:10084000BCF5E06F3FF6AFAEB5EB030C04BFB6EB03
:10085000020C5FEA500C50F1000041EB045170BDF6
:100860000EF0004E4EEA113114EB5C04C2BFD4EB23
:100870000C0541EA045170BD41F480114FF0000EA7
:10088000013C90E645EA060E8DE60CEA135594EA23
:100890000C0F08BF95EA0C0F3FF43BAF94EA0C0F26
:1008A0000AD150EA01347FF434AF95EA0C0F7FF49B
:1008B00025AF104619462CE795EA0C0F06D152EAEF
:1008C00003353FF4FDAE1046194622E750EA4106D3
:1008D00018BF52EA43067FF4C5AE50EA41047FF4E4
:1008E0000DAF52EA43057FF4EBAE12E74FF0FF3C49
:1008F00006E000BF4FF0010C02E000BF4FF0010C1A
:100900004DF804CD4FEA410C7FEA6C5C4FEA430C92
:1009100018BF7FEA6C5C1BD001B050EA410C0CBFE1
:1009200052EA430C91EA030F02BF90EA020F002043
:10093000704710F1000F91EA030F58BF994208BFAA
:1009400090422CBFD8176FEAE37040F00100704767
:100950004FEA410C7FEA6C5C02D150EA013C07D1BE
:100960004FEA430C7FEA6C5CD6D152EA033CD3D009
:100970005DF8040B704700BF8446104662468C4603
:100980001946634600E000BF01B5FFF7B7FF002836
:1009900048BF10F1000F01BD4DF808EDFFF7F4FF5F
:1009A0000CBF012000205DF808FB00BF4DF808EDEA
:1009B000FFF7EAFF34BF012000205DF808FB00BF0D
:1009C0004DF808EDFFF7E0FF94BF012000205DF82F
:1009D00008FB00BF4DF808EDFFF7CEFF94BF0120E4
:1009E00000205DF808FB00BF4DF808EDFFF7C4FFDD
:1009F00034BF012000205DF808FB00BF4FEA410230
:100A000012F5001215D211D56FF47873B3EB625260
:100A100012D94FEAC12343F0004343EA505311F087
:100A2000004F23FA02F018BF404270474FF0000019
:100A3000704750EA013005D111F0004008BF6FF057
:100A4000004070474FF00000704700BF4A0011D2CD
:100A500012F5001211D20DD56FF47873B3EB625218
:100A60000ED44FEAC12343F0004343EA505323FA24
:100A700002F070474FF00000704750EA013002D199
:100A80004FF0FF3070474FF00000704753B94AB93C
:100A9000002908BF00281CBF4FF0FF314FF0FF3086
:100AA00000F074B9ADF1080C6DE904CE00F006F861
:100AB000DDF804E0DDE9022304B070472DE9F047DA
:100AC000089E04468846002B40F085808A421546E1
:100AD00048D9B2FA82F24AB1C2F1200701FA02F310
:100AE00020FA07F7954047EA030894404FEA154E6D
:100AF000230CB8FBFEF71FFA85FC0EFB178843EAB0
:100B0000084307FB0CF1994209D9EB1807F1FF30B4
:100B100080F0E380994240F2E080023F2B445B1A70
:100B2000A4B2B3FBFEF00EFB103344EA034400FB17
:100B30000CFCA44509D92C1900F1FF3380F0CB80BF
:100B4000A44540F2C88002382C4440EA0740A4EB98
:100B50000C0400271EB1D4400023C6E900433946E7
:100B6000BDE8F087002A53D0B2FA82F2002A40F0A2
:100B7000B680491B4FEA154E1FFA85F80127B1FBD5
:100B8000FEFC230C0EFB1C1143EA014308FB0CF195
:100B9000994207D9EB180CF1FF3002D2994200F2CA
:100BA000EC808446591AA3B2B1FBFEF00EFB101480
:100BB00043EA044408FB00F8A04507D92C1900F1CA
:100BC000FF3302D2A04500F2DC801846A4EB0804F3
:100BD00040EA0C40BEE78B4208D9002E78D00027AF
:100BE000C6E9000138463946BDE8F087B3FA83F715
:100BF0007FB98B4202D3824200F2BD80841A61EB3E
:100C0000030301209846002EA9D0C6E90048A6E7B4
:100C1000FFDEC7F12005BB4022FA05FC4CEA030CBD
:100C200001FA07F420FA05F821FA05F34FEA1C4E01
:100C300048EA0404B3FBFEF9210C0EFB19331FFA3A
:100C40008CF841EA034309FB08FA9A4502FA07F2D5
:100C500000FA07F10BD91CEB030309F1FF3080F018
:100C600088809A4540F28580A9F102096344A3EB8C
:100C70000A03A4B2B3FBFEF00EFB103344EA0344B4
:100C800000FB08F8A04508D91CEB040400F1FF3371
:100C90006BD2A04569D90238644440EA0940A4EB0C
:100CA0000804A0FB02894C45C6464B4654D351D09C
:100CB000002E69D0B1EB0E0264EB030404FA05F5D3
:100CC00022FA07F3FC401D43C6E90054002746E71B
:100CD0003746304643E7184637E707461FE7C2F175
:100CE000200320FA03F7954001FA02F021FA03F3FA
:100CF0004FEA154E3843010CB3FBFEF71FFA85F897
:100D00000EFB173341EA034107FB08F38B4204FA59
:100D100002F407D9691807F1FF3C28D28B4226D983
:100D2000023F2944CB1A81B2B3FBFEF00EFB103315
:100D300041EA034100FB08F38B4207D9691800F12F
:100D4000FF3C10D28B420ED902382944C91A40EA1E
:100D5000074714E74145ABD2B8EB020E69EB0C0232
:100D600001381346A4E76046F0E7184695E7674662
:100D7000D8E781467BE7384645E7ACF1020C2B44C7
:100D800010E702382C4421E73746E8E6704700BFF9
:100D9000A749D1F890309B0430B518D54A6C4B6CFC
:100DA000C2F30B42013207EE902AC3F30B03013367
:100DB000F8EEE76A07EE903A0B6CB8EEE77A03F0CC
:100DC0001803082BC6EE877A25D013D8CBB1994BE0
:100DD00097491868984B1860D1F89420974B02F007
:100DE0000702013A062A24D8DFE802F01E21B2B435
:100DF000B7BBBD00102B11D0182BE8D19FED907A16
:100E000001E09FED907A904B67EE877AFCEEE77AEF
:100E1000C3ED007ADBE79FED8D7AF4E78C4B93ED21
:100E2000007AB8EE477AEEE7874A126800E0894A0E
:100E30001A601C68D1F80031874AC3F304230133D8
:100E4000B4FBF3F31360D1F8002102F04072B2F169
:100E5000807F00F08A80B2F1007F00F0888012B9B4
:100E60005A087E490A60724A7D4DD2F80411C1F3D6
:100E700008210131B3FBF1F12960D2F80811794D55
:100E8000C1F308210131B3FBF1F12960D2F814114B
:100E9000754DC1F304210131B3FBF1F12960D2F8A2
:100EA0000C11724DC1F308210131B3FBF1F129603E
:100EB000D2F818116E4DC1F308210131B3FBF1F1E5
:100EC0002960D2F81C116B4DC1F308210131B3FB2D
:100ED000F1F12960126F02F00302012A4FD0002ABB
:100EE00047D0022A48D05249634AD1F85C3103F016
:100EF0003003102B4CD045D8002B4CD0D1F85C31AE
:100F0000156803F003030133B5FBF3F31360D1F865
:100F10005C315A4A03F44013B3F5801F45D03CD8E6
:100F2000002B45D0424B1068D3F85C11C1F301414E
:100F30000131B0FBF1F11160D3F88010504A01F09B
:100F40000701042938D8DFE801F0356B6E377100EE
:100F50004C4A6AE74FF400426AE73B4A126852087B
:100F600066E73B4A61E7002262E79A0879E7DA0818
:100F700077E7454B1860B6E7334B1B685B08424A7E
:100F80001360B0E7202B05D0302BB7D11460B5E744
:100F90001060B3E72F4B1360B0E7B3F5001F06D026
:100FA000B3F5401FBED11460BCE71060BAE7294B0F
:100FB0001360B7E700211160D3F82011126833489D
:100FC000C1F3012102FA01F10160D3F82011304888
:100FD000C1F3034102FA01F10160D3F820112D4859
:100FE000C1F3023102FA01F10160D3F820112A485D
:100FF00001F00F0102FA01F10160D3F82011C1F3F1
:1010000003118A4025490A60D3F88420244B02F05A
:101010000702042A4AD8DFE802F04776797C7E008E
:1010200018490968C7E74FF40041C4E71D49F8E7CC
:1010300000400E4000000020E8000020D00000200A
:10104000000000008096184B0400002000000047BC
:101050001000002080969800F0000020A8000020DA
:10106000D4000020BC000020DC000020EC000020A8
:10107000E0000020D8000020B4000020C0000020C4
:10108000A40000200800002004010020F40000203B
:10109000F8000020FC0000209C000020B000002090
:1010A000B80000200C00002000221A601A68314BA2
:1010B0003148D3F8281101F0030102FA01F101606F
:1010C000D3F828112D48C1F3011102FA01F1016092
:1010D000D3F828112A48C1F3032102FA01F1016073
:1010E000D3F82811C1F3013104318A4025490A603F
:1010F000D3F88C2002F00702042A11D8DFE802F0AE
:101100000D1C20102400204A1268CEE74FF4004244
:10111000CBE71E4AF8E71E4AF6E71E4A0021116097
:10112000D3F888201C4B02F00702042A10D8DFE80D
:1011300002F00D191C0F1F00134A1168154AEEE743
:10114000144A4FF40041EAE7114AF6E700221A6018
:10115000084A1B68D2F8302102F0030293400F4A7C
:10116000136030BD084A1268F1E74FF40042EEE721
:10117000074AF8E700400E4000010020C8000020A8
:10118000AC000020A000002008000020A8000020E3
:101190000C000020E4000020CC000020C40000204F
:1011A000054B9842054B1A6894BF22F4803242F4F2
:1011B00080321A60704700BF0048E80100400E40CE
:1011C000084BD3F89020D2040AD4D3F84021D2019E
:1011D000FBD41861D3F84021D201FBD4024B196033
:1011E000704700BF00400E4004000020384AD2F88B
:1011F000903010B5DC0406D54FF400531366D2F8D6
:101200009030D804FBD4D2F8903013F0040F304B58
:1012100005D008211166D3F890205107FBD4102285
:101220005A624FF400529A621A6B42F000621A63DB
:1012300047F28C025A6304221A66254B1C46D3F8E7
:1012400090201207FBD502225A67D4F8943003F09D
:101250000703022BF9D11F4B1F49D3F8C00040F000
:101260000060FFF7ADFF062323641C4B63644FF45B
:1012700080532366164CD4F890309B04FBD5184855
:10128000FFF78EFF144800F00BFC00234FF4807230
:10129000C4F80031C4F80421C4F80831C4F80C21A2
:1012A000C4F81431C4F81831C4F81C212368084A62
:1012B00043F48013236001236367D2F8943003F072
:1012C0000703012BF9D10423C2F8883010BD00BFF9
:1012D00000400E40B081E00F00A24A046300CF023C
:1012E00000512502104B38B94FF400621A66D3F84A
:1012F00090205205FBD47047D3F840014000FBD446
:101300009960D3F840114800FBD4D3F890104905F8
:1013100007D44FF4806119660349D1F890301B055A
:10132000FBD5024B1A60704700400E4010000020B1
:101330000F4B30B920221A66D3F89020D206FBD486
:101340007047D3F840018001FBD49961D3F8401174
:101350008801FBD4D3F89010C90606D41021196671
:101360000349D1F890309B06FBD5024B1A607047B9
:1013700000400E4000000020084AD2F890305B0781
:101380000AD4D36A1B0DC0F30A001B0503430448AB
:1013900000EAC1200343D362704700BF00400E4003
:1013A00000F80F00074AD36AD26A4FF42071D2B214
:1013B000C3F3412301FB03235B0000EE103AB8EEB8
:1013C000C00A704700400E40074B9FED087ADB6A69
:1013D0009FED070AC3F3C82307EE903AF8EEE77AC9
:1013E000A7EE870A704700BF00400E403108AC3DB1
:1013F00033330B41084AD2F890305B070AD4136BA1
:101400001B0DC0F30A001B050343044800EAC1207A
:1014100003431363704700BF00400E4000F80F0005
:10142000074A136B126B4FF42071D2B2C3F34123FE
:1014300001FB03235B0000EE103AB8EEC00A7047D0
:1014400000400E40074B9FED087A1B6B9FED070A8B
:10145000C3F3C82307EE903AF8EEE77AA7EE870ABF
:10146000704700BF00400E403108AC3D33330B41A4
:10147000094AD2F8903013F004030BD028B110239E
:101480005366D2F890305B02FBD5D2F89C00C0F3D3
:101490000A0070471846704700400E400E4BD3F8C4
:1014A00090305B0710B5044612D5FFF7E1FF014607
:1014B0002046FFF7DDFF4FF42073C1F34121C0B296
:1014C00003FB0101490007EE901AB8EEE70A10BDD0
:1014D0009FED020AFBE700BF00400E400000000045
:1014E000054BD3F8900010F004001CBFD3F89C000B
:1014F000C0F30A40704700BF00400E4008B50D4BD6
:10150000D3F890305B0711D5FFF7EAFF0246FFF7EB
:10151000E7FF4FF42073C2F34122C0B203FB020283
:10152000520007EE902AB8EEE70A08BD9FED020AC6
:10153000FBE700BF00400E4000000000074AD2F861
:10154000B03043F48073C2F8B030054B40F2016212
:101550001A604FF0FF329A60704700BF00400E40A3
:1015600000C00140024B02221A67FFF711BC00BF06
:1015700000400E40114AD36843F08073D360104A94
:101580000223C2F8F0300F4B1B68B3FBF1F14FF4AC
:10159000807301391161C2F804330B4B0B4A1A6096
:1015A0004FF060434FF00112C3F8802E084AC3F891
:1015B000B02FC3F8400EC3F8000E7047F0ED00E006
:1015C000000004E004010020001000E0FE030040E1
:1015D00055CEACC54FF0604310B5D3F8802ED2077E
:1015E0000AD5D3F8004E01228A40224204D01A784C
:1015F000002AFCD003F8210010BD0021FFF7EABF4C
:10160000034AD2F8B03043F00203C2F8B03070475A
:1016100000400E401EF0040F0CBFEFF30880EFF304
:1016200009808169004A1047751600001EF0040FFA
:101630000CBFEFF30880EFF309808169004A10477F
:10164000591700001EF0040F0CBFEFF30880EFF3F2
:1016500009808169004A10474D1800001EF0040FF0
:101660000CBFEFF30880EFF309808169004A10474F
:101670004D19000000B589B00368009343680193D9
:1016800083680293C36803930369049343690593D2
:10169000836906932149C3692148079302F0DAFA66
:1016A000009A1E491F48204C02F0D4FA019A1B49A7
:1016B0001E4802F0CFFA029A18491D4802F0CAFAF1
:1016C000039A16491B4802F0C5FA049A13491A48AE
:1016D00002F0C0FA059A1149184802F0BBFA069ABE
:1016E0000E49174802F0B6FA079A0C49154802F05D
:1016F000B1FA0A49144802F0ADFAE26A0749134800
:1017000002F0A8FA62680549114802F0A3FAEFF363
:10171000088202490F4802F09DFAFEE7CC3E000025
:10172000733F0000953F000000ED00E0AA3F00007D
:10173000BF3F0000D43F0000E93F0000FF3F000032
:1017400026400000514000007F400000A7400000FC
:10175000BE400000D540000000B589B0036800938A
:101760004368019383680293C368039303690493F6
:1017700043690593836906932449C3692448079301
:1017800002F068FA009A21492248234C02F062FADA
:10179000019A1E49214802F05DFA029A1B4920482D
:1017A00002F058FA039A19491E4802F053FA049AB3
:1017B00016491D4802F04EFA059A14491B4802F0DA
:1017C00049FA069A11491A4802F044FA079A0F4951
:1017D000184802F03FFA0D49174802F03BFAA26A96
:1017E0000A491648D2B202F035FA626B074914482A
:1017F00002F030FA62680549124802F02BFAEFF362
:1018000008820249104802F025FAFEE7E23E000095
:10181000EB400000953F000000ED00E0AA3F000013
:10182000BF3F0000D43F0000E93F0000FF3F000041
:1018300026400000514000007F4000001A41000097
:1018400032410000BE400000D540000000B589B024
:10185000036800934368019383680293C36803930A
:101860000369049343690593836906932749C36910
:101870002748079302F0EEF9009A24492548264CA0
:1018800002F0E8F9019A2149244802F0E3F9029AAA
:101890001E49234802F0DEF9039A1C49214802F050
:1018A000D9F9049A1949204802F0D4F9059A174940
:1018B0001E4802F0CFF9069A14491D4802F0CAF9F1
:1018C000079A12491B4802F0C5F910491A4802F05C
:1018D000C1F9A26A0D491948C2F3072202F0BAF908
:1018E000A26B0A49164802F0B5F962680749154823
:1018F00002F0B0F9EFF308820449134802F0AAF9A4
:101900004FF0804301225A64FEE700BFF83E00001A
:10191000243F0000953F000000ED00E0AA3F0000DA
:10192000BF3F0000D43F0000E93F0000FF3F000040
:1019300026400000514000007F400000453F00006D
:101940005C3F0000BE400000D540000000B589B0FB
:10195000036800934368019383680293C368039309
:101960000369049343690593836906932249C36914
:101970002248079302F06EF9009A1F492048214C33
:1019800002F068F9019A1C491F4802F063F9029AB3
:1019900019491E4802F05EF9039A17491C4802F0E3
:1019A00059F9049A14491B4802F054F9059A12494E
:1019B000194802F04FF9069A0F49184802F04AF9FF
:1019C000079A0D49164802F045F90B49154802F0EF
:1019D00041F9A26A08491448C2F3CF3202F03AF939
:1019E00062680549114802F035F9EFF308820249AF
:1019F0000F4802F02FF9FEE70D3F00004A410000BA
:101A0000953F000000ED00E0AA3F0000BF3F00004E
:101A1000D43F0000E93F0000FF3F000026400000E7
:101A2000514000007F4000006D410000BE400000BA
:101A3000D54000004FF0804300221A645A651A67AF
:101A40009A6822F001029A6070474FF0804341F695
:101A500071321A6446F21A325A6547F62B421A67F7
:101A60009A6842F001029A60704708B5FFF7EDFFEF
:101A70004FF080431A6842F00B021A605A6842F035
:101A800080525A6020229A600222C3F890200322DA
:101A9000C3F8982001225A64BDE80840FFF7CABF86
:101AA00008B5FFF7D2FF234B98424FF0804315D87B
:101AB0005A6822F040725A604FF08042136823F453
:101AC000805313601C4B984228D94FF08042D2F8C3
:101AD000003143F0061343F4C06325E0174A9042F7
:101AE00005D85A6822F0407242F08072E3E7144A47
:101AF00090425A680ED822F0407242F000725A604A
:101B0000104B9842D8D94FF08042136843F4805369
:101B10001360DAE742F040725A60F4E7D2F800311D
:101B200023F0061323F4C063C2F80031BDE8084077
:101B3000FFF780BF80A8120180D543020051250223
:101B400080F9370380F0FA020A2310B5040900F087
:101B50000F0013FB040407EE904A080901F00F017F
:101B600013FB0011B8EEE77A07EE901AF8EEE77A69
:101B70009FED0A6A9FED0A0A77EEC77A1109C6EE51
:101B8000276A02F00F0213FB012307EE903AA7EE3B
:101B9000660AF8EEE77AA7EEA60A10BD295C8F3F29
:101BA0007B14EE3F07B50A23020900F00F0013FB78
:101BB000020207EE902A0A0901F00F0113FB02133B
:101BC000B8EEE77A07EE903AF8EEE77A9FED176AFB
:101BD00077EEC77AC6EE276ADFED157AE7EE667A0A
:101BE00030EE670A80EE260A02F05CF8B2EE047A64
:101BF000C0EE077AFCEEE77ACDED017A9DF804306D
:101C000003EB8302520007EE902AF8EEE77A30EEFB
:101C1000670ABCEEC00A10EE102A02F00F0040EA7C
:101C20000310C0B203B05DF804FB00BF295C8F3F16
:101C30007B14EE3F154BDB6A13F0010115D0144AFB
:101C40000121117013F0040113D0124A0121117007
:101C500013F0100111D0104A0121117013F040024D
:101C60000FD00E4B01221A7070479A07EAD5084A26
:101C7000E7E71807ECD5074AE9E79A06EED5064AE2
:101C8000EBE71B06F0D5054BEDE700BF00300E403B
:101C900080000020810000208200002083000020BE
:101CA000074B4FF41052DA63064ADA62064B012200
:101CB000E021C3F8802183F800131A60704700BF49
:101CC00000300E40FF37DFE300E100E012494FF043
:101CD0000053CB624B6A9B00FCD5104B9FED106A02
:101CE0001A685B6D91ED087ADBB207EE903AF8EE78
:101CF000E77AB8EE477AC7EE866AC2F3074337EE53
:101D0000C77A00EE103ADFED077AB8EEC00A76EE39
:101D1000A77AA7EE270A704700300E40B081E00F87
:101D20000000C84204568E3E2DE9F84389462DED49
:101D3000028B9046B0EE608A70B9234BD3F89020A6
:101D400022F00102C3F890201A6B22F003021A63FA
:101D5000BDEC028BBDE8F8831C4BD3F84051D3F89F
:101D60004061EDB2C6F3072631462846FFF71AFF59
:101D7000B0EE480A074631462846FFF713FF0446EF
:101D8000B9F1000F06D03A4631462846FFF7DCFE8F
:101D900089ED000AB8F1000F06D0224631462846E8
:101DA000FFF7D2FE88ED000A074B0322DA621A6BB6
:101DB000240444EA072442F0030244F001041A63B5
:101DC000C3F89040C4E700BF00300E40B081E00F80
:101DD000F8B50F4658B9174BD3F8982022F00102F6
:101DE000C3F898201A6B22F030021A63F8BD124B28
:101DF000D3F84451D3F84461EDB2C6F30726314617
:101E00002846FFF7CFFE044637B102463146284642
:101E1000FFF79AFE87ED000A064B3022DA621A6B52
:101E2000240242F0300244F001041A63C3F89840DF
:101E3000DCE700BF00300E40B081E00FF8B50F4680
:101E400058B9174BD3F89C2022F00102C3F89C200C
:101E50001A6B22F0C0021A63F8BD124BD3F844513A
:101E6000D3F84461C5F30745360E31462846FFF7DF
:101E700099FE044637B1024631462846FFF764FE14
:101E800087ED000A064BC022DA621A6B240242F088
:101E9000C00244F001041A63C3F89C40DCE700BFB1
:101EA00000300E40B081E00F294AD2F8B03043F044
:101EB0002003C2F8B030274B4FF0501140F20442DB
:101EC00019604FF070105A6000229A60DA609A62CE
:101ED00018634FF43B205A6398634FF4C050D863A3
:101EE0001D489A6519665A669A66DA66C3F88820AC
:101EF000C3F89010C3F89420C3F89800C3F89C204E
:101F0000C3F8B820C3F8C010C3F8C420C3F8C82071
:101F1000C3F8CC20C3F8E820C3F8F0100F49C3F889
:101F2000F4108021C3F8F820C3F8FC10C3F818217E
:101F3000D3F8401421F00C01C3F84014D3F8401436
:101F400041F01001C3F84014C3F84424704700BFA7
:101F500000400E4000800840404404004404004417
:101F600070B5A24CE26CC2F30742102A86B000F0B2
:101F7000CC80112A00F0CB80122A00F0CA80132AEC
:101F800000F0C980142A00F0C880152A00F0C7802C
:101F9000192A00F0C6801A2A00F0C5801B2A00F01A
:101FA000C4801C2A00F0C3801D2A00F0C2801E2AB3
:101FB00000F0C1801F2A00F0C080202A00F0BF80FE
:101FC000212A00F0BE80252A00F0BD80262A00F0DC
:101FD000BC80272A00F0BB80282A00F0BA80292A7A
:101FE00000F0B9802A2A00F0B8802B2A00F0B780D0
:101FF0002C2A00F0B6802D2A00F0B5802E2A00F0A1
:10200000B480312A00F0B380322A00F0B280332A43
:1020100000F0B180342A00F0B080352A00F0AF80A3
:10202000362A00F0AE80372A00F0AD80382A00F062
:10203000AC80392A00F0AB803A2A00F0AA803D2A11
:1020400000F0A9803E2A00F0A8803F2A00F0A78077
:10205000472A00F0A680482A00F0A580492A00F00F
:10206000A4804A2A00F0A3804B2A00F0A2804C2AC8
:1020700000F0A1804D2A00F0A080512A00F09F803E
:10208000532A00F09E80552A00F09D80572A00F0C8
:102090009C80642A00F09B80672A00F09A806A2A5C
:1020A00000F09980782A00F09880792A00F09780D3
:1020B0004F4D504B7A2A18BF2B46626BC2F3072252
:1020C0004A2A00F08E804C2A05D04D2A03D0512A8E
:1020D00014BF3F225122656B15F0FF0500F083808D
:1020E000012D0CBF49263F26E56C646B0296C4F3B4
:1020F0000744CDE90324ADB24FF40062019200958C
:102100003D4A01F0BBFD06B070BD3C4BD5E73C4BF2
:10211000D3E73C4BD1E73C4BCFE73C4BCDE73C4BC7
:10212000CBE73C4BC9E73C4BC7E73C4BC5E73C4BD7
:10213000C3E73C4BC1E73C4BBFE73C4BBDE73C4BE7
:10214000BBE73C4BB9E73C4BB7E73C4BB5E73C4BF7
:10215000B3E73C4BB1E73C4BAFE73C4BADE73C4B07
:10216000ABE73C4BA9E73C4BA7E73C4BA5E73C4B17
:10217000A3E73C4BA1E73C4B9FE73C4B9DE73C4B27
:102180009BE73C4B99E73C4B97E73C4B95E73C4B37
:1021900093E73C4B91E73C4B8FE73C4B8DE73C4B47
:1021A0008BE73C4B89E73C4B87E73C4B85E73C4B57
:1021B00083E73C4B81E73C4B7FE73C4B7DE73C4B67
:1021C0007BE73C4B79E73C4B77E73C4B75E73C4B77
:1021D00073E73C4B71E73C4B6FE73C4B6DE73C4B87
:1021E0006BE73F2277E747267EE700BFB081E00F2D
:1021F00098410000A9430000B14300009A4100004B
:10220000A4410000AE410000B8410000C2410000FE
:10221000CC410000D6410000E0410000EA4100004E
:10222000F4410000FF4100000A4200001542000096
:10223000204200002B4200003642000041420000D4
:102240004C42000057420000624200006D42000014
:1022500078420000834200008E4200009942000054
:10226000A4420000AF420000BA420000C542000094
:10227000D0420000DB420000E6420000F1420000D4
:10228000FC42000007430000124300001D43000011
:102290003043000043430000554300006843000002
:1022A00076430000894300009C430000AE430000D9
:1022B0009F4300008E410000914300007E430000D8
:1022C0006B4300005D4300004A4300003B430000B5
:1022D000284300000000000070B52DED048B8CB089
:1022E000FFF7DEFCD44CFE214FF40070FFF744F8FA
:1022F000FE210A20FFF77EF8FEF778FFD4F86C1273
:10230000CE4A41F000710120FEF7ECFFCC4AD4F830
:102310000C110120FFF70CF8FEF73AFDFFF722F948
:10232000C8490320FFF726F9FFF79FFB00F048FD9F
:10233000FFF7BAFD00F000FDFFF762F9FFF7FEF8C6
:1023400000F050FEDFEDC00A9FEDC00A6A4601A909
:102350000120FFF7E9FC02A9B0EE040A0120FFF713
:1023600037FD9FEDBB0A03A90120FFF767FDDFEDF5
:10237000B97ADDED029A9DED039A01221146002003
:1023800079EEA79A39EE279A00F046FD04A820219D
:10239000FFF7E6FD04AAB049B04801F05BFCB04984
:1023A000B0480B698A69C9691B02C1F3031103F4C0
:1023B0007C530B4302F0F0021A43A74901F04AFC98
:1023C0002268A549A848C2F3074201F043FC4FF434
:1023D0000062A149A54801F03DFC4FF400729E49FE
:1023E000A34801F037FC012001F08CFCEFF30885D5
:1023F0002D1A01F08FFC2A4697499E48DFED9E8AF0
:102400009FED9E8A9E4D9F4E01F024FC626C924986
:10241000236C9D489D4C01F01DFC00229C4B8E4975
:102420009C4801F017FC9C4BD3ED007AF8EE677ADC
:10243000C7EEA87A17EE900AFDF7EEFF02460B46AC
:102440009648854901F006FC954BD3ED007AF8EEED
:10245000677AC7EEA87A17EE900AFDF7DDFF02460D
:102460000B4690487C4901F0F5FB8F4BD3ED007A89
:10247000F8EE677AC7EEA87A17EE900AFDF7CCFF60
:1024800002460B468948744901F0E4FB68A3D3E98E
:1024900000237149864801F0DDFB864BD3ED007ABD
:1024A000F8EE677AC7EE887A17EE900AFDF7B4FF68
:1024B00002460B468048684901F0CCFB7F4BD3EDC8
:1024C000007AF8EE677AC7EE887A17EE900AFDF781
:1024D000A3FF02460B467A485F4901F0BBFB794BEC
:1024E000D3ED007AF8EE677AC7EEA87A17EE900A75
:1024F000FDF792FF02460B467348574901F0AAFBCD
:10250000724BD3ED007AF8EE677AC7EEA87A17EE31
:10251000900AFDF781FF02460B466D484E4901F0D7
:1025200099FB6C4BD3ED007AF8EE677AC7EEA87A88
:1025300017EE900AFDF770FF02460B4666484649C3
:1025400001F088FB654BD3ED007AF8EE677AC7EEB1
:10255000A87A17EE900AFDF75FFF02460B46604827
:102560003D4901F077FB5F4BD3ED007AF8EE677AD7
:10257000C7EEA87A17EE900AFDF74EFF02460B460B
:102580005948354901F066FB584BD3ED007AF8EE17
:10259000677AC7EEA87A17EE900AFDF73DFF02466C
:1025A0000B4653482C4901F055FB524BD3ED007AB2
:1025B000F8EE677AC7EEA87A17EE900AFDF72CFFBF
:1025C00002460B464C48244901F044FB4B4BD3EDEB
:1025D000007AF8EE677AC7EEA87A17EE900AFDF750
:1025E0001BFF02460B4646481B4901F033FB454B97
:1025F000D3ED007AF8EE677AC7EEA87A17EE900A64
:10260000FDF70AFF02460B463F48134901F022FB43
:102610003E4BD3ED007AF8EE677AC7EEA87A17EE54
:10262000900AFDF7F9FE02460B4671E0AFF3008019
:10263000000000E04D624040B081E00F00127A00DF
:102640000048E80180841E007B144E4066664640C8
:102650009A994940F4FDD43C84410000CA430000EB
:10266000D0FF0FE0DE430000FF43000028440000DD
:10267000444400005E4400000024744900007A4491
:10268000C3430000C04B000077440000C743000074
:10269000000024409544000004000020BA440000DB
:1026A00010000020E0440000000000200845000069
:1026B0003145000008000020564500000C000020B5
:1026C0007C450000D0000020A3450000F000002061
:1026D000C9450000D4000020EC450000BC000020EB
:1026E00012460000DC00002039460000EC0000200B
:1026F0005F460000E000002085460000D800002072
:10270000AC460000A8000020D3460000B400002022
:10271000D348D44901F09EFAD34BD3ED007AF8EEBA
:10272000677AC7EEA87A17EE900AFDF775FE0246A3
:102730000B46CE48CB4901F08DFACD4BD3ED007A54
:10274000F8EE677AC7EEA87A17EE900AFDF764FEF6
:1027500002460B46C748C34901F07CFAC64BD3ED8D
:10276000007AF8EE677AC7EEA87A17EE900AFDF7BE
:1027700053FE02460B46C148BA4901F06BFAC04B02
:10278000D3ED007AF8EE677AC7EE887A17EE900AF2
:10279000FDF742FE02460B46BA48B24901F05AFA2A
:1027A000B94BD3ED007AF8EE677AC7EE887A17EE68
:1027B000900AFDF731FE02460B46B448A94901F0E4
:1027C00049FAB34BD3ED007AF8EE677AC7EE887A10
:1027D00017EE900AFDF720FE02460B46AD48A149D0
:1027E00001F038FAAC4BD3ED007AF8EE677AC7EE19
:1027F000887A17EE900AFDF70FFE02460B46A748AF
:10280000984901F027FAA64BD3ED007AF8EE677AE3
:10281000C7EE887A17EE900AFDF7FEFD02460B46DA
:10282000A048904901F016FA9F4BD3ED007AF8EEDC
:10283000677AC7EE887A17EE900AFDF7EDFD02463B
:102840000B469A48874901F005FA994BD3ED007A77
:10285000F8EE677AC7EE887A17EE900AFDF7DCFD8E
:1028600002460B4693487F4901F0F4F9924BD3EDB1
:10287000007AF8EE677AC7EE887A17EE900AFDF7CD
:10288000CBFD02460B468D48764901F0E3F98C4BAF
:10289000D3ED007AF8EE677AC7EE887A17EE900AE1
:1028A000FDF7BAFD02460B4686486E4901F0D2F9A3
:1028B000854BD3ED007AF8EE677AC7EE887A17EE8B
:1028C000900AFDF7A9FD02460B468048654901F0D4
:1028D000C1F97F4BD3ED007AF8EE677AC7EE887ABC
:1028E00017EE900AFDF798FD02460B4679485D49C0
:1028F00001F0B0F9784BD3ED007AF8EE677AC7EEC5
:10290000887A17EE900AFDF787FD02460B4673485A
:10291000544901F09FF9724BD3ED007AF8EE677AD3
:10292000C7EE887A17EE900AFDF776FD02460B4651
:102930006C484C4901F08EF96B4BD3ED007AF8EE00
:10294000677AC7EE887A17EE900AFDF765FD0246B2
:102950000B466648434901F07DF9DDED017A67EEEB
:10296000887A17EE900AFDF757FD02460B4660483D
:102970003C4901F06FF9DDED007A67EE887A17EED9
:10298000900AFDF749FD02460B465A48354901F0C9
:1029900061F900F047FB10EE100AFDF73DFD02461D
:1029A0000B4655482F4901F055F9544B2D491A78DB
:1029B0005348002A14BF2A46224601F04BF9DDEDA8
:1029C000027A67EE887A17EE900AFDF725FD024637
:1029D0000B464C48234901F03DF969EE887A17EE21
:1029E000900AFDF719FD02460B4647481D4901F0C4
:1029F00031F900F05BFB10EE100AFDF70DFD024609
:102A00000B464248174901F025F9414B15491A7800
:102A10004048002A14BF2A46224601F01BF9DDED8A
:102A2000037A67EE887A17EE900AFDF7F5FC024606
:102A30000B4639480B4901F00DF969EE087A17EE9B
:102A4000900AFDF7E9FC02460B463448054901F0BF
:102A500001F900F06FFB10EE100AFDF7DDFC5FE0FE
:102A6000F846000084410000C00000201D4700001F
:102A70000401002042470000E800002066470000F3
:102A8000A40000208A470000F4000020AE470000A8
:102A9000F8000020D6470000FC000020FA470000A4
:102AA0009C0000201E480000B000002047480000A5
:102AB000B800002070480000000100209448000089
:102AC000C8000020BC480000AC000020E448000022
:102AD000A00000200C490000E40000203149000063
:102AE000CC00002055490000C400002079490000B6
:102AF0009E490000CB490000F849000080000020FA
:102B00001D4A00003C4A0000694A0000964A000045
:102B100082000020BB4A0000DA4A0000084B000097
:102B200002460B461C481D4901F094F81C4B1B49FA
:102B30001A781C48002A14BF2A46224601F08AF857
:102B400000F03CFB10EE100AFDF766FC02460B4657
:102B500015481249114D01F07DF86420002100F064
:102B600047F90E49114801F075F808246000002269
:102B70000123114600F0FE0000F08AF920B1224640
:102B80002946304601F066F80134782CEED1002059
:102B90000CB0BDEC048B70BD364B000084410000CE
:102BA000830000205C4B00007C4B0000A14B000028
:102BB000514BF7B50022C3F87421D3F870214F4967
:102BC0004F484E4D4F4E42F00102C3F870211A6833
:102BD00042F00C021A6001F03DF84B4B1C68236870
:102BE000002B40F08280494D444C494FEB6883F004
:102BF0000103EB604FF4FA70002100F0F9F800F0E7
:102C000021FB10EE100AFDF707FC02460B46384682
:102C1000214601F01FF8FFF759F810EE100AFDF7F2
:102C2000FBFB02460B463B48214601F013F8FEF73A
:102C3000CBFB10EE100AFDF7EFFB02460B463648C1
:102C4000214601F007F8FEF7ADFB10EE100AFDF784
:102C5000E3FB02460B463148214600F0FBFFFEF73E
:102C6000F1FB10EE100AFDF7D7FB02460B462C488D
:102C7000214600F0EFFFFEF7D3FB10EE100AFDF740
:102C8000CBFB0B4602462146264800F0E3FFFEF749
:102C900027FC0646FEF732FC10EE100AFDF7BCFBDF
:102CA0003246CDE9000121461F4800F0D3FF012044
:102CB000FEF7DEFB06460020FEF7F0FB10EE100AE2
:102CC000FDF7AAFB3246CDE900012146174800F086
:102CD000C1FF00F063F821460246154800F0BAFF34
:102CE0002146144800F0B6FF80E762682946304666
:102CF00000F0B0FF083472E700400E408941000048
:102D0000E14B0000044C000014000020008008404B
:102D1000204C0000384C0000504C00006F4C00006C
:102D20008E4C0000AC4C0000CA4C0000EC4C000083
:102D30000E4D0000264D000008B5164BD3F8B0200C
:102D400042F00102C3F8B020D3F8302122F0030290
:102D5000C3F83021D3F8F02042F00102C3F8F0208C
:102D6000FEF716F80C4B49F214021A6000225A6062
:102D70009A6040F2E7325A6402221A6540F2FF720A
:102D80001A625A6A42F004025A621A6842F0010258
:102D90001A6008BD00400E4000200640014B9868B4
:102DA000704700BF00200640044930B5D1E9002338
:102DB000541C43F10005C1E9004530BD88000020E6
:102DC000084B4FF47A721B68B3FBF2F3064A013BDF
:102DD00053600023936007231360044BE02283F8C1
:102DE00023207047BC00002010E000E000ED00E070
:102DF000084B2DE9F043D3E90045D3E90089B8EB4E
:102E0000040669EB05078F4208BF8642F5D3BDE88B
:102E1000F08300BF88000020082910B523D8082AB5
:102E200021D8164CD4F8C03043F48023C4F8C03005
:102E3000134B00241C6042EA012203245C649A6460
:102E400090B9104A10491268B2FBF1F2083AE24018
:102E5000013A1A611A6842F001021A6020225A608F
:102E60009A68D207FCD410BD0128F3D1054A07495E
:102E70001268B2FBF1F2083AD208E9E700400E40CE
:102E800000940840D8000020A0860100801A0600A7
:102E90002DE9F843DFF8A09007460E461546984600
:102EA0004C46D9F8083003F01103012B15D001234B
:102EB000C9F80430A36803F0F303532BFAD1E76297
:102EC000A36803F0D303932BFAD1A368190709D59C
:102ED000022363600020BDE8F88301200021FFF792
:102EE00087FFDEE795B107F00107082304210136CB
:102EF0008FB916F8012CE262A26802F0F702D72A15
:102F0000FAD1A2681207E3D4013DF0D1B8F1000F65
:102F10000ED10120DFE7A26802F0F302B32AFAD152
:102F2000E26906F8012C012D8CBF61606360EBE75C
:102F300002236360EDE700BF00940840FEE770479E
:102F400008B51D4A1D4B1E498B4227D31D4B1E4AF7
:102F50001E498B4227D31E4B1E4A0021934227D382
:102F6000FFF7EDFF1C4B1D4A9A601D4ADA604FF4D3
:102F7000E0225A621A6942F010021A615A6942F05C
:102F800010025A61D3F8882042F47002C3F88820F6
:102F9000FFF7A2F9FFF70CFE72B6FEE752F8040B3A
:102FA00043F8040BD0E752F8040B43F8040BD0E7C6
:102FB00043F8041BD2E700BFB84D0000000000102A
:102FC0000000001000000020B84D00007C00002030
:102FD000800000201801002000ED00E0000000004B
:102FE0000005FA0508B50B4BD3F8C02042F4801257
:102FF000C3F8C020D3F8C02042F40012C3F8C020A8
:10300000054AC3F85C21FDF7C3FE044B044A1A606D
:1030100008BD00BF00400E4013011301002008400E
:10302000C04F07831B4BDA6812F4985FFBD11A4A32
:103030001A614FF480425A615A6B22F4FF4222F027
:103040007F025A63154A526E596BC2F30E420A430D
:103050005A631A6B124922F00F021A631A6B22F09C
:103060000F020A639A6842F001029A60094B9A6B58
:10307000D207FCD59B6C9FED0B0A1B0907EE903A1B
:10308000F8EEE77A67EE807A9FED070A27EE800A6E
:10309000704700BF0020084078E0FF07B081E00FD4
:1030A0000024084000409C45000080391B4BDA6832
:1030B00012F4985FFBD11A4A1A614FF480425A61A8
:1030C0005A6B22F4FF4222F07F025A63154A526E75
:1030D000596BC2F30E420A435A631A6B124922F02B
:1030E0000F021A631A6B22F00F020A639A6842F009
:1030F00001029A60094B9A6BD207FCD59B6C9FED3D
:103100000B0A1B0907EE903AF8EEE77A67EE807A31
:103110009FED070A27EE800A704700BF0020084095
:1031200078E2FF07B081E00F0024084000409C4592
:10313000000080391B4BDA6812F4985FFBD11A4A01
:103140001A614FF480425A615A6B22F4FF4222F016
:103150007F025A63154A526E596BC2F30E420A43FC
:103160005A631A6B124922F00F021A631A6B22F08B
:103170000F020A639A6842F001029A60094B9A6B47
:10318000D207FCD59B6C9FED0B0A1B0907EE903A0A
:10319000F8EEE77A67EE807A9FED070A27EE800A5D
:1031A000704700BF0020084078E5FF07B081E00FBE
:1031B0000024084000409C45000080391B4BDA6821
:1031C00012F4985FFBD11A4A1A614FF480425A6197
:1031D0005A6B22F4FF4222F07F025A63154A126EA4
:1031E000596BC2F30E420A435A631A6B124922F01A
:1031F0000F021A631A6B22F00F020A639A6842F0F8
:1032000001029A60094B9A6BD207FCD59B6C9FED2B
:103210000B0A1B0907EE903AF8EEE77A67EE807A20
:103220009FED070A27EE800A704700BF0020084084
:1032300038E4FF07B081E00F0024084000401C453F
:103240000000803910B5264BDA6812F4985FFBD184
:10325000244A1A614FF480425A615A6B224C22F47C
:10326000FF4222F07F025A63204A116E586BC1F36D
:103270000E0101435963186B204040F480301863FD
:10328000196B1B48214041F480310163996841F07A
:10329000010199601346124A916BC907FCD5916CE4
:1032A0001A68DB6EDFED136AC3F30B1307EE903A77
:1032B0000B09B8EEE77A07EE903AF8EEE77AC2F338
:1032C000074377EE677A9FED0C7A67EE877A00EE18
:1032D000103A87EEA67AB8EEC00A37EE000A10BDA3
:1032E0000020084018F3FF09F0FFFEFFB081E00F57
:1032F000002408401F85EB4500409C449A4238BF9B
:103300008854704770472DE9F74F9B46DDE91173EC
:10331000814613F002008A461646DDE90C549DF8FA
:1033200038C00190DDE90F214FF0300E44D003F09A
:10333000030001284FF0300E46D013F0100F18D0C4
:10334000A14201D0A74244D1002C79D0102A04F127
:10335000FF3147D1002941D0023C990673D41F2C7C
:1033600073D878222A5501341F2C6ED830222A5562
:103370000134BC4206D1BCF1000F02D113F00C0F96
:1033800057D07C1E1F2C05D8BCF1000F54D02D2324
:103390002B550134C0B325444FF00008444506EBDB
:1033A000080235D1019B002B40D1104603B0BDE887
:1033B000F08F05F804E00134A142B8D9202CF8D1EF
:1033C000B5E705F804E00134A742B6D9202CF8D1BE
:1033D000B3E7102AC1D01F2CDCD8C7E70C46BCE7E6
:1033E0005822BFE70C46C1E71B07D3D52023CFE700
:1033F000561C5B4651462020C847324608EB020364
:103400009F42F5D81646C6E73246A4EB0608F5E714
:103410005B46514615F8010DC84708F10108BDE7A4
:10342000541C5B4651462020C8472246BA42F7D377
:10343000BBE71F2F3C46ADD85A07D5D52B23A7E7AE
:10344000102A93D189E71F2CCAD9BC4293D0A1E797
:103450002DE9F04391B0DDF874C0189D1A9F1CF45B
:10346000806F00D0A5B31CF0200F0DF1200E4FF09F
:10347000000614BF4FF037084FF05708B5FBF7F9B7
:1034800007FB19595FFA89F4B9F1090F94BF303479
:103490004444E4B2BD420EF8014BB5FBF7F406F12B
:1034A000010601D3202E11D11C9C05941B9CCDF844
:1034B00018C0CDE903749DF86440CDE9016408ACFF
:1034C0000094FFF720FF11B0BDE8F0832546D5E753
:1034D0002E46E9E72DE9F04F93B09146249D6A0509
:1034E000074688469A4603D5DDE91C3423433BD082
:1034F00015F0200F14BF372357230AAE0024099379
:10350000DDE92023DDE91C01FDF7C0FAD2B2092A6A
:103510008ABF099B3032D218D2B2DDE920BC06F84E
:10352000012BDDE91C23634508BF5A4504F1010462
:1035300001D3202C15D1239B0593229B0493209B20
:1035400003939DF878300695CDE901430AAB0093CB
:103550004A46534641463846FFF7D5FE13B0BDE80C
:10356000F08FCDE91C01CBE70024E4E708B1FEF7BA
:1035700044B87047000000002DE9F04F9FB09A4614
:103580000B1E0C93DDF8A0B0B54B18BF0346914657
:103590000B9300244AE325280AF1010A07D0651C91
:1035A00022464B46DDE90B41A0472C463EE3002571
:1035B00006E02D2B16D0302B0CD145F0010592469C
:1035C000524612F8013B2B2B0FD0F2D8202B0FD0F4
:1035D000232B10D0A3F1300109292ED800230D93FD
:1035E0000A2011E045F00205E9E745F00405E6E7A9
:1035F00045F00805E3E745F01005E0E70D9900FB0D
:103600000133303B0D939246524612F8013BA3F131
:1036100030010929F2D99AF800302E2B48D19AF8B6
:103620000120A2F1300109290AF1010345F4806566
:1036300036D89A4600260A2113E02A2B09D15BF8D6
:10364000043B002BBCBF5B4245F002050D93924644
:10365000E1E700230D93DEE701FB0602A2F130064D
:103660009A46534613F8010BA0F13002092AF3D908
:10367000534613F8012B6C2A23D01BD8682A29D073
:103680006A2A31D053469A461AF8010B662836D07A
:1036900000F2C48058282AD145F020051023C7E045
:1036A0002A2A04D15BF8046B0AF1020AE0E79A4681
:1036B0000026DDE7742A01D07A2AE3D145F480752B
:1036C000E1E79AF801206C2AF8D145F440750AF137
:1036D0000203D8E79AF80120682A02D045F0800555
:1036E000D1E745F0C005F2E745F40075CBE700F2FD
:1036F000868025283FF453AF46287FF450AF0BF166
:10370000070B2BF0070BBBEC027B0022002351ECD4
:10371000170B8DED0E7BFDF749F9002800F00B81AA
:10372000DDE90E2300200021FCF716FDCDE90E0196
:10373000012311936A0540F10081092E28BF092653
:103740001096DDE90E01FDF759F9109A454B03EB90
:10375000C20393ED007B06468DED127BFCF74AFE1B
:1037600002460B46DDE90E01FCF7F6FCDDE912230B
:10377000FCF7AAFECDE91401FDF768F90746FCF74E
:1037800029FE02460B46DDE91401FCF7E5FC0022A8
:10379000354BCDE91401FDF727F9002800F0D08062
:1037A00001373846FCF716FE02460B46DDE91201EA
:1037B000FDF706F908B10136002727A3D3E9002356
:1037C000DDE90E01FDF710F900287FF4E2AE109B51
:1037D000002B40F0D4803046FCF70CFE02460B462E
:1037E000DDE90E01FCF7B8FC00221F4B07468846B6
:1037F000FDF7FAF8002800F0B2800136B9E063283E
:1038000000F06081642802D062287FF4C8AE62288C
:1038100025F0100540F0DA81022309E0702800F05D
:10382000B28123D86928F2D06F287FF4B8AE08237C
:1038300015F4007225F00C015DD00D9A0891CDE9C8
:1038400006620022CDE904320BF1070B2BF00707CB
:103850000292F7E80223DFE10000C0FFFFFFDF4133
:1038600005330000604D00000000E03F7528CED019
:1038700078283FF413AF73287FF491AE5BF8047B94
:103880003B469846013398F80020002AF9D115F4F8
:103890008063A8EB0708109302D0B04528BFB0465C
:1038A00015F002030E9300F047812246D41B4BE132
:1038B000E8050BF1040713D5DBF800300D990292EF
:1038C000CDE90361DA0F002B05950192B8BF5B4289
:1038D00000934B462246DDE90B01FFF7B9FDA3E15A
:1038E00015F0400FDBF8003001D0DBB2E6E7290627
:1038F00048BF1BB2E2E7E8050BF1040708D50591C4
:103900000D99CDE90123CDE90361DBF80030DFE754
:1039100015F0400FDBF8002009D0D2B205910D99C7
:1039200002930023CDE90361CDE90023D1E7280606
:1039300048BF92B2F2E71190FCE60623109300E72D
:103940000022A14BDDE91401FDF726F800283FF421
:1039500034AF17B1FB077FF530AF01372DE70022F9
:10396000994B38464146FDF717F810B1F7073FF578
:1039700044AF109A16AB134490460A225CE016AA94
:103980004FF001080A20B7FBF0F100FB1173303350
:10399000B8F1200F02F8013B1DD0092F08F10103F7
:1039A00011D8434616AA30211098834208F1010825
:1039B0000CD1109BCDF840801EAA13441A462E232A
:1039C00002F8203CD5E798460F46DCE7B8F11F0F18
:1039D00099544346E8D905F00303012B16AA4FF08A
:1039E000300131D00D9A904507D1119A1AB915F0CE
:1039F0000C0F00F0DD8008F1FF38B8F11F0F0AD876
:103A0000119A002A00F0D8801EAA42442D2102F803
:103A1000201C08F10108EBB92246A8EB04062BE0B4
:103A200096FBF2F102FB1166303603F8016B08F1E8
:103A300001080E460029CED0B8F1200FF0D1CAE718
:103A400008F8021008F101080D988045CAD2B8F1B3
:103A50001F0FF5D916AB43441093002719E0280730
:103A6000D9D51EAA42442021D1E7571C4B460C99B8
:103A70000B9C2020A0473A460D99B3189942F4D8E0
:103A80001446E7E710980C9900780B9E4B46B04718
:103A90000137109B474503F1FF3307EB04021093F6
:103AA000F0D1A907144640F1C1800D9BA34240F21A
:103AB000BD80651C22464B460B9C0C992020A047DC
:103AC0002C46F2E715F0020526D0224601275BF8C6
:103AD000040B0C990B9E4B46C0B2541CB047002DF2
:103AE00000F0A4800D9BBB4240F2A080651C2246E2
:103AF0004B460B9C0C992020A04701372C46F1E740
:103B00004B460C990B9F2020B8470D9B3219B71CD0
:103B10000136B342F4D8DAE72E46F6E74B460C9965
:103B20000B9D2020A84743460D99994204EB0302C0
:103B300003F10108F2D8B9E64346E41AF4E71E4659
:103B40004B46DDE90B51A847E21917F8010B28B1E4
:103B5000109B002BF4D0731E002EF0D10E9B144648
:103B6000002B63D0A8EB020807E0651C22464B46F9
:103B70000B9C0C992020A0472C460D9A08EB0403BF
:103B80009342F2D352E00823CDE9036310220023CD
:103B9000CDE9013245F0210505955BF8043B009322
:103BA00022464B46DDE90B01FFF752FC04463DE09F
:103BB000B8F11F0F3FF62FAF6E077FF550AF1EAA6B
:103BC00042442B2123E700BF0000E03F69284FF06B
:103BD0000A0203D0642813467FF42AAEAF057FF5AE
:103BE00067AE0BF1070B2BF0070B0D9BDBF80410F6
:103BF0005F4657F8080B0492CDE90663002305934E
:103C0000CB0F029300280B4673F100010895024682
:103C100002DA424263EB4303CDE90023DDE90B0105
:103C20004B462246FFF756FC0446BB469AF8000076
:103C300000287FF4B0AC4C452CBF09F1FF3222467E
:103C40004B460C990B9D0020A84720461FB0BDE8AD
:103C5000F08F00BF0FB41FB506AA02A952F8043BAB
:103C60000392009204484FF0FF32FFF785FC05B045
:103C70005DF804EB04B070476D3500000CB41FB55F
:103C800006AA52F8043B039200920A4601460448F1
:103C9000FFF772FC05B05DF804EB02B0704700BF9F
:103CA000FD32000082B08DED010A0199C1F3C753C6
:103CB000A3F17F02162A16DC002A0DDB1048104102
:103CC000084212D04FF4800313410B4423EA00034F
:103CD00000EE103A02B07047013201F00043F7D114
:103CE00043F07E53F4E7802A03D09DED010A02B031
:103CF0007047DDED017A37EEA70A02B0704700BFCA
:103D0000FFFF7F00024B0146186800F059B800BF62
:103D100018000020024B0146186800F003B800BFED
:103D20001800002038B50546002945D051F8043C5C
:103D30000C1F002BB8BFE41800F0ACF81F4A136842
:103D4000104633B9636014602846BDE8384000F07F
:103D5000A7B8A3420CD921686218934204BF1A681D
:103D60005B68636004BF521822600460ECE713468E
:103D70005A680AB1A242FAD919685818A0420BD160
:103D800020680144581882421960DDD110685268D9
:103D90005A6001441960D7E702D90C232B60D3E79E
:103DA000206821188A4204BF11685268626004BF0B
:103DB000091821605C60C7E738BD00BF9000002093
:103DC000F8B5CD1C25F0030508350C2D38BF0C25A2
:103DD000002D064601DBA94203D90C2333600020E5
:103DE000F8BD00F057F821490A6814469CB9204FE5
:103DF0003B6823B92146304600F03CF8386029463C
:103E0000304600F037F8431C23D10C233360304692
:103E100000F046F8E3E723685B1B17D40B2B03D9AC
:103E200023601C44256004E06368A2420CBF0B6061
:103E30005360304600F034F804F10B00231D20F0ED
:103E40000700C21ACCD01B1AA350C9E722466468E7
:103E5000CCE7C41C24F00304A042E3D0211A30466E
:103E600000F008F80130DDD1CFE700BF900000205E
:103E70009400002038B5064C002305460846236010
:103E800000F016F8431C02D1236803B12B6038BD43
:103E900008010020014800F009B800BF100100200F
:103EA000014800F004B800BF1001002070477047BF
:103EB000044A05491368002B08BF0B4618441060DC
:103EC000184670479800002018010020686172644D
:103ED0006661756C745F74726163655F737461634E
:103EE0006B006D656D6D616E6167655F74726163B6
:103EF000655F737461636B006275736661756C7482
:103F00005F74726163655F737461636B0075736185
:103F100067656661756C745F74726163655F737405
:103F200061636B005B25735D202D204275732066F5
:103F300061756C742120537461636B2074726163CA
:103F4000653A0D0A005B25735D202D2042465352D1
:103F5000205B3078253032585D0D0A005B25735D9B
:103F6000202D2042464152205B3078253038585D64
:103F70000D0A005B25735D202D2048617264206668
:103F800061756C742120537461636B20747261637A
:103F9000653A0D0A005B25735D202D205230205BB1
:103FA0003078253038585D0D0A005B25735D202D73
:103FB000205231205B3078253038585D0D0A005B87
:103FC00025735D202D205232205B30782530385803
:103FD0005D0D0A005B25735D202D205233205B3080
:103FE00078253038585D0D0A005B25735D202D2043
:103FF000523132205B3078253038585D0D0A005B35
:1040000025735D202D204C52205B5231345D205BA6
:104010003078253038585D2063616C6C207265748F
:1040200075726E0D0A005B25735D202D20504320B4
:104030005B5231355D205B3078253038585D20701B
:10404000726F6772616D20636F756E7465720D0AB1
:10405000005B25735D202D20505352205B30782566
:104060003038585D2070726F6772616D20737461B3
:104070007475732072656769737465720D0A005BED
:1040800025735D202D202D2D2D2D2D2D2D2D2D2D0C
:104090002D2D2D2D2D2D2D2D2D2D2D2D2D2D2D2D50
:1040A0002D2D2D2D0D0A005B25735D202D204846FA
:1040B0005352205B3078253038585D0D0A005B255F
:1040C000735D202D2049435352205B3078253038D2
:1040D000585D0D0A005B25735D202D204D53502047
:1040E0005B3078253038585D0D0A005B25735D2004
:1040F0002D204D656D6F7279206D616E6167656D04
:10410000656E74206661756C742120537461636BF5
:104110002074726163653A0D0A005B25735D202D82
:10412000204D4D465352205B3078253032585D0D7E
:104130000A005B25735D202D204D4D464152205BCA
:104140003078253038585D0D0A005B25735D202DD1
:10415000205573616765206661756C742120537406
:1041600061636B2074726163653A0D0A005B2573AD
:104170005D202D2055465352205B30782530345831
:104180005D0D0A00696E6974006D61696E004546D7
:104190004D33324A473142003F0045465233324D9B
:1041A0004731500045465233324D47314200454673
:1041B0005233324D47315600454652333242473131
:1041C0005000454652333242473142004546523351
:1041D000324247315600454652333246473150004D
:1041E0004546523332464731420045465233324605
:1041F0004731560045465233324D47313250004523
:10420000465233324D473132420045465233324DE9
:104210004731325600454652333242473132500020
:1042200045465233324247313242004546523332DC
:1042300042473132560045465233324647313250BA
:1042400000454652333246473132420045465233EA
:104250003246473132560045465233324D473133AC
:10426000500045465233324D4731334200454652A5
:1042700033324D473133560045465233324247318F
:1042800033500045465233324247313342004546AF
:1042900052333242473133560045465233325A4741
:1042A0003133500045465233324647313350004592
:1042B0004652333246473133420045465233324646
:1042C000473133560045465233324D473134500062
:1042D00045465233324D473134420045465233321F
:1042E0004D473134560045465233324247313450FF
:1042F000004546523332424731344200454652333C
:104300003242473134560045465233325A473134EF
:1043100050004546523332464731345000454652EC
:104320003332464731344200455A52333257470000
:104330004546523332464731345600455A5233329D
:104340004C470045464D3332470045464D333247D2
:10435000473132420045464D333247470045464DCE
:10436000333254473131420054470045464D3332D1
:1043700047473131420045464D33324C47004546B0
:104380004D33324A473132420045464D333257476A
:104390000045464D33325047313242005A470045BE
:1043A000464D33325047314200455A523332484726
:1043B000002573256875462568752563256325687E
:1043C0006875004C4F57004F4B005B25735D202DE7
:1043D000204465766963653A2025730D0A005B25E4
:1043E000735D202D2044657669636520526576698A
:1043F00073696F6E3A203078253034580D0A005BAF
:1044000025735D202D2043616C6962726174696F50
:104410006E2074656D70657261747572653A2025E1
:1044200068687520430D0A005B25735D202D2046CA
:104430006C6173682053697A653A20256875206B32
:10444000420D0A005B25735D202D2052414D205303
:10445000697A653A20256875206B420D0A005B2554
:10446000735D202D20467265652052414D3A20250E
:104470006C7520420D0A005B25735D202D20556E62
:10448000697175652049443A20253038582D25300A
:1044900038580D0A005B25735D202D20434D5520B3
:1044A0002D204846584F20436C6F636B3A20252ED1
:1044B0003166204D487A210D0A005B25735D202D61
:1044C00020434D55202D20484652434F20436C6FCA
:1044D000636B3A20252E3166204D487A210D0A0063
:1044E0005B25735D202D20434D55202D20555348CD
:1044F0004652434F20436C6F636B3A20252E316642
:10450000204D487A210D0A005B25735D202D204344
:104510004D55202D20415558484652434F20436C5D
:104520006F636B3A20252E3166204D487A210D0AA3
:10453000005B25735D202D20434D55202D204C46DA
:10454000584F20436C6F636B3A20252E3366206BE7
:10455000487A210D0A005B25735D202D20434D55BF
:10456000202D204C4652434F20436C6F636B3A2002
:10457000252E3366206B487A210D0A005B25735D7A
:10458000202D20434D55202D20554C4652434F2081
:10459000436C6F636B3A20252E3366206B487A217B
:1045A0000D0A005B25735D202D20434D55202D20E5
:1045B000484653524320436C6F636B3A20252E319B
:1045C00066204D487A210D0A005B25735D202D2061
:1045D000434D55202D20484620436C6F636B3A2095
:1045E000252E3166204D487A210D0A005B25735D2A
:1045F000202D20434D55202D204846425553204321
:104600006C6F636B3A20252E3166204D487A210D60
:104610000A005B25735D202D20434D55202D204839
:1046200046434F524520436C6F636B3A20252E3131
:1046300066204D487A210D0A005B25735D202D20F0
:10464000434D55202D20484645585020436C6F63FC
:104650006B3A20252E3166204D487A210D0A005BE9
:1046600025735D202D20434D55202D204846504573
:104670005220436C6F636B3A20252E3166204D48E3
:104680007A210D0A005B25735D202D20434D5520B6
:104690002D2048465045524220436C6F636B3A20B0
:1046A000252E3166204D487A210D0A005B25735D69
:1046B000202D20434D55202D204846504552432063
:1046C000436C6F636B3A20252E3166204D487A216A
:1046D0000D0A005B25735D202D20434D55202D20B4
:1046E00048464C4520436C6F636B3A20252E31665B
:1046F000204D487A210D0A005B25735D202D204353
:104700004D55202D204144433020436C6F636B3A5C
:1047100020252E3166204D487A210D0A005B257335
:104720005D202D20434D55202D2041444331204311
:104730006C6F636B3A20252E3166204D487A210D2F
:104740000A005B25735D202D20434D55202D20440C
:10475000424720436C6F636B3A20252E3166204D13
:10476000487A210D0A005B25735D202D20434D55AD
:10477000202D2041555820436C6F636B3A20252E25
:104780003166204D487A210D0A005B25735D202D8E
:1047900020434D55202D204C464120436C6F636BC8
:1047A0003A20252E3366206B487A210D0A005B25BE
:1047B000735D202D20434D55202D204C4553454EF3
:1047C000534520436C6F636B3A20252E3366206B74
:1047D000487A210D0A005B25735D202D20434D553D
:1047E000202D2052544320436C6F636B3A20252EBA
:1047F0003366206B487A210D0A005B25735D202DFE
:1048000020434D55202D204C434420436C6F636B57
:104810003A20252E3366206B487A210D0A005B254D
:10482000735D202D20434D55202D204C4554494D7E
:1048300045523020436C6F636B3A20252E3366203F
:104840006B487A210D0A005B25735D202D20434DB6
:1048500055202D204C4554494D45523120436C6F15
:10486000636B3A20252E3366206B487A210D0A00AF
:104870005B25735D202D20434D55202D204C464255
:1048800020436C6F636B3A20252E3366206B487A89
:10489000210D0A005B25735D202D20434D55202DF1
:1048A000204C45554152543020436C6F636B3A2085
:1048B000252E3366206B487A210D0A005B25735D37
:1048C000202D20434D55202D204C4555415254312B
:1048D00020436C6F636B3A20252E3366206B487A39
:1048E000210D0A005B25735D202D20434D55202DA1
:1048F000205359535449434B20436C6F636B3A2008
:10490000252E3366206B487A210D0A005B25735DE6
:10491000202D20434D55202D204353454E20436CE0
:104920006F636B3A20252E3366206B487A210D0A7F
:10493000005B25735D202D20434D55202D204C46D6
:104940004320436C6F636B3A20252E3366206B48FF
:104950007A210D0A005B25735D202D20434D5520E3
:104960002D204C464520436C6F636B3A20252E3337
:1049700066206B487A210D0A005B25735D202D208F
:10498000434D55202D205254434320436C6F636B9D
:104990003A20252E3366206B487A210D0A005B25CC
:1049A000735D202D20454D55202D20415644442037
:1049B00046616C6C205468726573686F6C643A2051
:1049C000252E3266206D56210D0A005B25735D2071
:1049D0002D20454D55202D204156444420526973C9
:1049E00065205468726573686F6C643A20252E32B6
:1049F00066206D56210D0A005B25735D202D204534
:104A00004D55202D204156444420566F6C746167EB
:104A1000653A20252E3266206D560D0A005B2573FF
:104A20005D202D20454D55202D20415644442053D6
:104A300074617475733A2025730D0A005B25735DEC
:104A4000202D20454D55202D2044564444204661BC
:104A50006C6C205468726573686F6C643A20252E04
:104A60003266206D56210D0A005B25735D202D20D6
:104A7000454D55202D2044564444205269736520ED
:104A80005468726573686F6C643A20252E32662014
:104A90006D56210D0A005B25735D202D20454D5577
:104AA000202D204456444420566F6C746167653A4B
:104AB00020252E3266206D560D0A005B25735D2081
:104AC0002D20454D55202D204456444420537461DB
:104AD0007475733A2025730D0A005B25735D202DD4
:104AE00020454D55202D20494F5644442046616CA9
:104AF0006C205468726573686F6C643A20252E329E
:104B000066206D56210D0A005B25735D202D204522
:104B10004D55202D20494F5644442052697365203D
:104B20005468726573686F6C643A20252E32662073
:104B30006D56210D0A005B25735D202D20454D55D6
:104B4000202D20494F56444420566F6C7461676590
:104B50003A20252E3266206D560D0A005B25735DC6
:104B6000202D20454D55202D20494F56444420539B
:104B700074617475733A2025730D0A005B25735DAB
:104B8000202D20454D55202D20436F726520566FF6
:104B90006C746167653A20252E3266206D560D0AC9
:104BA000005B25735D202D205363616E6E696E6717
:104BB000204932432062757320312E2E2E0D0A00BB
:104BC0005B25735D202D2020204164647265737322
:104BD000203078253032582041434B6564210D0A3E
:104BE000005B25735D202D20496E697469616C201E
:104BF00063616C6962726174696F6E2064756D7057
:104C00003A0D0A005B25735D202D20202030782589
:104C1000303858202D3E203078253038580D0A0085
:104C20005B25735D202D204144432054656D703A0F
:104C300020252E32660D0A005B25735D202D204550
:104C40004D552054656D703A20252E32660D0A00B0
:104C50005B25735D202D204846584F2053746172A8
:104C60007475703A20252E32662070460D0A005B5E
:104C700025735D202D204846584F2053746172746F
:104C800075703A20252E32662075410D0A005B258D
:104C9000735D202D204846584F2053746561647918
:104CA0003A20252E32662070460D0A005B25735D82
:104CB000202D204846584F205374656164793A206E
:104CC000252E32662075410D0A005B25735D202D6F
:104CD000204846584F20504D41205B253033585DC9
:104CE0003A20252E32662075410D0A005B25735D42
:104CF000202D204846584F20504441205B2530331A
:104D0000585D3A20252E32662075410D0A005B253C
:104D1000735D202D20525443432054696D653A2021
:104D2000256C750D0A005B25735D202D2042696797
:104D30002066616720646F6573206E6F74206E65F6
:104D40006564206465627567207561727420616EA8
:104D5000796D6F72652E0D0A0000000000000000E2
:104D6000000000000000F03F0000000000002440B0
:104D700000000000000059400000000000408F408B
:104D8000000000000088C34000000000006AF840F6
:104D90000000000080842E4100000000D01263411A
:104DA0000000000084D797410000000065CDCD4190
:084DB0000CBDFF7F01000000B3
:104DB800C0EA2101C0EA210100800000E8030000E8
:104DC800006CDC020080E00F1C00002000000000E6
:104DD80000000000000000000000000000000000CB
:104DE80000000000000000000000000000000000BB
:104DF80000000000000000000000000000000000AB
:104E0800000000000000000000000000000000009A
:104E1800000000000000000000000000000000008A
:0C4E28000000000000000000000000007E
:0400000300002F4189
:00000001FF
